{
  "contractName": "MyContact",
  "abi": [
    {
      "inputs": [
        {
          "internalType": "address",
          "name": "nftAddress",
          "type": "address"
        },
        {
          "internalType": "address",
          "name": "tokenAddress",
          "type": "address"
        }
      ],
      "stateMutability": "nonpayable",
      "type": "constructor"
    },
    {
      "inputs": [
        {
          "internalType": "uint256",
          "name": "",
          "type": "uint256"
        }
      ],
      "name": "_listing",
      "outputs": [
        {
          "internalType": "uint256",
          "name": "id",
          "type": "uint256"
        },
        {
          "internalType": "uint256",
          "name": "amount",
          "type": "uint256"
        },
        {
          "internalType": "address",
          "name": "owner",
          "type": "address"
        },
        {
          "internalType": "uint256",
          "name": "price",
          "type": "uint256"
        },
        {
          "internalType": "enum MyContact.Status",
          "name": "status",
          "type": "uint8"
        }
      ],
      "stateMutability": "view",
      "type": "function",
      "constant": true
    },
    {
      "inputs": [],
      "name": "_listingId",
      "outputs": [
        {
          "internalType": "uint256",
          "name": "",
          "type": "uint256"
        }
      ],
      "stateMutability": "view",
      "type": "function",
      "constant": true
    },
    {
      "inputs": [
        {
          "internalType": "address",
          "name": "",
          "type": "address"
        },
        {
          "internalType": "address",
          "name": "",
          "type": "address"
        },
        {
          "internalType": "uint256",
          "name": "",
          "type": "uint256"
        },
        {
          "internalType": "uint256",
          "name": "",
          "type": "uint256"
        },
        {
          "internalType": "bytes",
          "name": "",
          "type": "bytes"
        }
      ],
      "name": "onERC1155Received",
      "outputs": [
        {
          "internalType": "bytes4",
          "name": "",
          "type": "bytes4"
        }
      ],
      "stateMutability": "nonpayable",
      "type": "function"
    },
    {
      "inputs": [
        {
          "internalType": "uint256",
          "name": "nftId",
          "type": "uint256"
        },
        {
          "internalType": "uint256",
          "name": "amount",
          "type": "uint256"
        },
        {
          "internalType": "uint256",
          "name": "price",
          "type": "uint256"
        }
      ],
      "name": "listNft",
      "outputs": [],
      "stateMutability": "nonpayable",
      "type": "function"
    },
    {
      "inputs": [
        {
          "internalType": "uint256",
          "name": "listingId",
          "type": "uint256"
        },
        {
          "internalType": "uint256",
          "name": "amount",
          "type": "uint256"
        }
      ],
      "name": "unlistNft",
      "outputs": [],
      "stateMutability": "nonpayable",
      "type": "function"
    },
    {
      "inputs": [
        {
          "internalType": "uint256",
          "name": "listingId",
          "type": "uint256"
        },
        {
          "internalType": "uint256",
          "name": "amount",
          "type": "uint256"
        }
      ],
      "name": "buyNFT",
      "outputs": [],
      "stateMutability": "nonpayable",
      "type": "function"
    },
    {
      "inputs": [],
      "name": "getListing",
      "outputs": [
        {
          "components": [
            {
              "internalType": "uint256",
              "name": "id",
              "type": "uint256"
            },
            {
              "internalType": "uint256",
              "name": "amount",
              "type": "uint256"
            },
            {
              "internalType": "address",
              "name": "owner",
              "type": "address"
            },
            {
              "internalType": "uint256",
              "name": "price",
              "type": "uint256"
            },
            {
              "internalType": "enum MyContact.Status",
              "name": "status",
              "type": "uint8"
            }
          ],
          "internalType": "struct MyContact.Listing[]",
          "name": "",
          "type": "tuple[]"
        }
      ],
      "stateMutability": "view",
      "type": "function",
      "constant": true
    }
  ],
  "bytecode": "0x608060405260006002553480156200001657600080fd5b5060405162001ec638038062001ec683398181016040528101906200003c91906200012f565b816000806101000a81548173ffffffffffffffffffffffffffffffffffffffff021916908373ffffffffffffffffffffffffffffffffffffffff16021790555080600160006101000a81548173ffffffffffffffffffffffffffffffffffffffff021916908373ffffffffffffffffffffffffffffffffffffffff160217905550505062000176565b600080fd5b600073ffffffffffffffffffffffffffffffffffffffff82169050919050565b6000620000f782620000ca565b9050919050565b6200010981620000ea565b81146200011557600080fd5b50565b6000815190506200012981620000fe565b92915050565b60008060408385031215620001495762000148620000c5565b5b6000620001598582860162000118565b92505060206200016c8582860162000118565b9150509250929050565b611d4080620001866000396000f3fe608060405234801561001057600080fd5b506004361061007d5760003560e01c8063bd2129771161005b578063bd212977146100d8578063e0a41cf2146100f4578063f23a6e6114610112578063fc48592a146101425761007d565b80631d85bf0314610082578063601fccd01461009e5780637f4f54f2146100ba575b600080fd5b61009c600480360381019061009791906111cf565b610176565b005b6100b860048036038101906100b3919061120f565b610769565b005b6100c26109e4565b6040516100cf9190611271565b60405180910390f35b6100f260048036038101906100ed91906111cf565b6109ea565b005b6100fc610ec5565b604051610109919061146a565b60405180910390f35b61012c600480360381019061012791906115fe565b6110b6565b60405161013991906116d0565b60405180910390f35b61015c600480360381019061015791906116eb565b6110cb565b60405161016d959493929190611736565b60405180910390f35b6000600160009054906101000a900473ffffffffffffffffffffffffffffffffffffffff16905060008060009054906101000a900473ffffffffffffffffffffffffffffffffffffffff16905060008273ffffffffffffffffffffffffffffffffffffffff166370a08231336040518263ffffffff1660e01b81526004016101fe9190611789565b602060405180830381865afa15801561021b573d6000803e3d6000fd5b505050506040513d601f19601f8201168201806040525081019061023f91906117b9565b90506000600360008781526020019081526020016000206040518060a001604052908160008201548152602001600182015481526020016002820160009054906101000a900473ffffffffffffffffffffffffffffffffffffffff1673ffffffffffffffffffffffffffffffffffffffff1673ffffffffffffffffffffffffffffffffffffffff168152602001600382015481526020016004820160009054906101000a900460ff1660028111156102fa576102f9611308565b5b600281111561030c5761030b611308565b5b8152505090506000816020015190508581101561035e576040517f08c379a000000000000000000000000000000000000000000000000000000000815260040161035590611843565b60405180910390fd5b60008260600151876103709190611892565b9050808410156103b5576040517f08c379a00000000000000000000000000000000000000000000000000000000081526004016103ac90611938565b60405180910390fd5b6000836040015190508573ffffffffffffffffffffffffffffffffffffffff1663a22cb4653360016040518363ffffffff1660e01b81526004016103fa929190611973565b600060405180830381600087803b15801561041457600080fd5b505af1158015610428573d6000803e3d6000fd5b505050508573ffffffffffffffffffffffffffffffffffffffff1663f242432a303387600001518c6040518563ffffffff1660e01b815260040161046f94939291906119d3565b600060405180830381600087803b15801561048957600080fd5b505af115801561049d573d6000803e3d6000fd5b505050508673ffffffffffffffffffffffffffffffffffffffff166323b872dd3383856040518463ffffffff1660e01b81526004016104de93929190611a2b565b6020604051808303816000875af11580156104fd573d6000803e3d6000fd5b505050506040513d601f19601f820116820180604052508101906105219190611a8e565b5060008060028660800190600281111561053e5761053d611308565b5b9081600281111561055257610551611308565b5b815250508985111561057b5760019150898561056e9190611abb565b9050898660200181815250505b85600360008d8152602001908152602001600020600082015181600001556020820151816001015560408201518160020160006101000a81548173ffffffffffffffffffffffffffffffffffffffff021916908373ffffffffffffffffffffffffffffffffffffffff1602179055506060820151816003015560808201518160040160006101000a81548160ff0219169083600281111561061f5761061e611308565b5b021790555090505060011515821515141561075c5760006040518060a0016040528088600001518152602001838152602001886040015173ffffffffffffffffffffffffffffffffffffffff168152602001886060015181526020016000600281111561068f5761068e611308565b5b8152509050600260008154809291906106a790611aef565b919050555080600360006002548152602001908152602001600020600082015181600001556020820151816001015560408201518160020160006101000a81548173ffffffffffffffffffffffffffffffffffffffff021916908373ffffffffffffffffffffffffffffffffffffffff1602179055506060820151816003015560808201518160040160006101000a81548160ff0219169083600281111561075257610751611308565b5b0217905550905050505b5050505050505050505050565b60008060009054906101000a900473ffffffffffffffffffffffffffffffffffffffff16905060008173ffffffffffffffffffffffffffffffffffffffff1662fdd58e33876040518363ffffffff1660e01b81526004016107cb929190611b38565b602060405180830381865afa1580156107e8573d6000803e3d6000fd5b505050506040513d601f19601f8201168201806040525081019061080c91906117b9565b905083811015610851576040517f08c379a000000000000000000000000000000000000000000000000000000000815260040161084890611bd3565b60405180910390fd5b60006040518060a001604052808781526020018681526020013373ffffffffffffffffffffffffffffffffffffffff168152602001858152602001600060028111156108a05761089f611308565b5b8152509050600260008154809291906108b890611aef565b919050555080600360006002548152602001908152602001600020600082015181600001556020820151816001015560408201518160020160006101000a81548173ffffffffffffffffffffffffffffffffffffffff021916908373ffffffffffffffffffffffffffffffffffffffff1602179055506060820151816003015560808201518160040160006101000a81548160ff0219169083600281111561096357610962611308565b5b02179055509050508273ffffffffffffffffffffffffffffffffffffffff1663f242432a333089896040518563ffffffff1660e01b81526004016109aa94939291906119d3565b600060405180830381600087803b1580156109c457600080fd5b505af11580156109d8573d6000803e3d6000fd5b50505050505050505050565b60025481565b60008060009054906101000a900473ffffffffffffffffffffffffffffffffffffffff1690506000600360008581526020019081526020016000206040518060a001604052908160008201548152602001600182015481526020016002820160009054906101000a900473ffffffffffffffffffffffffffffffffffffffff1673ffffffffffffffffffffffffffffffffffffffff1673ffffffffffffffffffffffffffffffffffffffff168152602001600382015481526020016004820160009054906101000a900460ff166002811115610ac957610ac8611308565b5b6002811115610adb57610ada611308565b5b8152505090503373ffffffffffffffffffffffffffffffffffffffff16816040015173ffffffffffffffffffffffffffffffffffffffff1614610b53576040517f08c379a0000000000000000000000000000000000000000000000000000000008152600401610b4a90611c65565b60405180910390fd5b60008160200151905083811015610b9f576040517f08c379a0000000000000000000000000000000000000000000000000000000008152600401610b9690611843565b60405180910390fd5b8273ffffffffffffffffffffffffffffffffffffffff1663a22cb4653360016040518363ffffffff1660e01b8152600401610bdb929190611973565b600060405180830381600087803b158015610bf557600080fd5b505af1158015610c09573d6000803e3d6000fd5b505050508273ffffffffffffffffffffffffffffffffffffffff1663f242432a30338560000151886040518563ffffffff1660e01b8152600401610c5094939291906119d3565b600060405180830381600087803b158015610c6a57600080fd5b505af1158015610c7e573d6000803e3d6000fd5b50505050600080600184608001906002811115610c9e57610c9d611308565b5b90816002811115610cb257610cb1611308565b5b8152505085831115610cdb57600191508583610cce9190611abb565b9050858460200181815250505b8360036000898152602001908152602001600020600082015181600001556020820151816001015560408201518160020160006101000a81548173ffffffffffffffffffffffffffffffffffffffff021916908373ffffffffffffffffffffffffffffffffffffffff1602179055506060820151816003015560808201518160040160006101000a81548160ff02191690836002811115610d7f57610d7e611308565b5b0217905550905050600115158215151415610ebc5760006040518060a0016040528086600001518152602001838152602001866040015173ffffffffffffffffffffffffffffffffffffffff1681526020018660600151815260200160006002811115610def57610dee611308565b5b815250905060026000815480929190610e0790611aef565b919050555080600360006002548152602001908152602001600020600082015181600001556020820151816001015560408201518160020160006101000a81548173ffffffffffffffffffffffffffffffffffffffff021916908373ffffffffffffffffffffffffffffffffffffffff1602179055506060820151816003015560808201518160040160006101000a81548160ff02191690836002811115610eb257610eb1611308565b5b0217905550905050505b50505050505050565b606060006001600254610ed89190611c85565b67ffffffffffffffff811115610ef157610ef06114d3565b5b604051908082528060200260200182016040528015610f2a57816020015b610f1761112e565b815260200190600190039081610f0f5790505b5090506040518060a001604052806000815260200160008152602001600073ffffffffffffffffffffffffffffffffffffffff1681526020016000815260200160016002811115610f7e57610f7d611308565b5b81525081600081518110610f9557610f94611cdb565b5b60200260200101819052506000600190505b60025481116110ae57600360008281526020019081526020016000206040518060a001604052908160008201548152602001600182015481526020016002820160009054906101000a900473ffffffffffffffffffffffffffffffffffffffff1673ffffffffffffffffffffffffffffffffffffffff1673ffffffffffffffffffffffffffffffffffffffff168152602001600382015481526020016004820160009054906101000a900460ff16600281111561106757611066611308565b5b600281111561107957611078611308565b5b815250508282815181106110905761108f611cdb565b5b602002602001018190525080806110a690611aef565b915050610fa7565b508091505090565b600063f23a6e6160e01b905095945050505050565b60036020528060005260406000206000915090508060000154908060010154908060020160009054906101000a900473ffffffffffffffffffffffffffffffffffffffff16908060030154908060040160009054906101000a900460ff16905085565b6040518060a001604052806000815260200160008152602001600073ffffffffffffffffffffffffffffffffffffffff168152602001600081526020016000600281111561117f5761117e611308565b5b81525090565b6000604051905090565b600080fd5b600080fd5b6000819050919050565b6111ac81611199565b81146111b757600080fd5b50565b6000813590506111c9816111a3565b92915050565b600080604083850312156111e6576111e561118f565b5b60006111f4858286016111ba565b9250506020611205858286016111ba565b9150509250929050565b6000806000606084860312156112285761122761118f565b5b6000611236868287016111ba565b9350506020611247868287016111ba565b9250506040611258868287016111ba565b9150509250925092565b61126b81611199565b82525050565b60006020820190506112866000830184611262565b92915050565b600081519050919050565b600082825260208201905092915050565b6000819050602082019050919050565b6112c181611199565b82525050565b600073ffffffffffffffffffffffffffffffffffffffff82169050919050565b60006112f2826112c7565b9050919050565b611302816112e7565b82525050565b7f4e487b7100000000000000000000000000000000000000000000000000000000600052602160045260246000fd5b6003811061134857611347611308565b5b50565b600081905061135982611337565b919050565b60006113698261134b565b9050919050565b6113798161135e565b82525050565b60a08201600082015161139560008501826112b8565b5060208201516113a860208501826112b8565b5060408201516113bb60408501826112f9565b5060608201516113ce60608501826112b8565b5060808201516113e16080850182611370565b50505050565b60006113f3838361137f565b60a08301905092915050565b6000602082019050919050565b60006114178261128c565b6114218185611297565b935061142c836112a8565b8060005b8381101561145d57815161144488826113e7565b975061144f836113ff565b925050600181019050611430565b5085935050505092915050565b60006020820190508181036000830152611484818461140c565b905092915050565b611495816112e7565b81146114a057600080fd5b50565b6000813590506114b28161148c565b92915050565b600080fd5b600080fd5b6000601f19601f8301169050919050565b7f4e487b7100000000000000000000000000000000000000000000000000000000600052604160045260246000fd5b61150b826114c2565b810181811067ffffffffffffffff8211171561152a576115296114d3565b5b80604052505050565b600061153d611185565b90506115498282611502565b919050565b600067ffffffffffffffff821115611569576115686114d3565b5b611572826114c2565b9050602081019050919050565b82818337600083830152505050565b60006115a161159c8461154e565b611533565b9050828152602081018484840111156115bd576115bc6114bd565b5b6115c884828561157f565b509392505050565b600082601f8301126115e5576115e46114b8565b5b81356115f584826020860161158e565b91505092915050565b600080600080600060a0868803121561161a5761161961118f565b5b6000611628888289016114a3565b9550506020611639888289016114a3565b945050604061164a888289016111ba565b935050606061165b888289016111ba565b925050608086013567ffffffffffffffff81111561167c5761167b611194565b5b611688888289016115d0565b9150509295509295909350565b60007fffffffff0000000000000000000000000000000000000000000000000000000082169050919050565b6116ca81611695565b82525050565b60006020820190506116e560008301846116c1565b92915050565b6000602082840312156117015761170061118f565b5b600061170f848285016111ba565b91505092915050565b611721816112e7565b82525050565b6117308161135e565b82525050565b600060a08201905061174b6000830188611262565b6117586020830187611262565b6117656040830186611718565b6117726060830185611262565b61177f6080830184611727565b9695505050505050565b600060208201905061179e6000830184611718565b92915050565b6000815190506117b3816111a3565b92915050565b6000602082840312156117cf576117ce61118f565b5b60006117dd848285016117a4565b91505092915050565b600082825260208201905092915050565b7f53706563696669656420416d6f756e74206e6f7420617661696c61626c650000600082015250565b600061182d601e836117e6565b9150611838826117f7565b602082019050919050565b6000602082019050818103600083015261185c81611820565b9050919050565b7f4e487b7100000000000000000000000000000000000000000000000000000000600052601160045260246000fd5b600061189d82611199565b91506118a883611199565b9250817fffffffffffffffffffffffffffffffffffffffffffffffffffffffffffffffff04831182151516156118e1576118e0611863565b5b828202905092915050565b7f596f7520646f6e74206861766520656e6f75676820746f6b656e730000000000600082015250565b6000611922601b836117e6565b915061192d826118ec565b602082019050919050565b6000602082019050818103600083015261195181611915565b9050919050565b60008115159050919050565b61196d81611958565b82525050565b60006040820190506119886000830185611718565b6119956020830184611964565b9392505050565b600082825260208201905092915050565b50565b60006119bd60008361199c565b91506119c8826119ad565b600082019050919050565b600060a0820190506119e86000830187611718565b6119f56020830186611718565b611a026040830185611262565b611a0f6060830184611262565b8181036080830152611a20816119b0565b905095945050505050565b6000606082019050611a406000830186611718565b611a4d6020830185611718565b611a5a6040830184611262565b949350505050565b611a6b81611958565b8114611a7657600080fd5b50565b600081519050611a8881611a62565b92915050565b600060208284031215611aa457611aa361118f565b5b6000611ab284828501611a79565b91505092915050565b6000611ac682611199565b9150611ad183611199565b925082821015611ae457611ae3611863565b5b828203905092915050565b6000611afa82611199565b91507fffffffffffffffffffffffffffffffffffffffffffffffffffffffffffffffff821415611b2d57611b2c611863565b5b600182019050919050565b6000604082019050611b4d6000830185611718565b611b5a6020830184611262565b9392505050565b7f416d6f756e7420746f206265206c6973746564206973206d6f7265207468616e60008201527f20616d6f756e74206f776e656400000000000000000000000000000000000000602082015250565b6000611bbd602d836117e6565b9150611bc882611b61565b604082019050919050565b60006020820190508181036000830152611bec81611bb0565b9050919050565b7f596f7520617265206e6f7420746865206f776e6572206f662074686973204e4660008201527f5400000000000000000000000000000000000000000000000000000000000000602082015250565b6000611c4f6021836117e6565b9150611c5a82611bf3565b604082019050919050565b60006020820190508181036000830152611c7e81611c42565b9050919050565b6000611c9082611199565b9150611c9b83611199565b9250827fffffffffffffffffffffffffffffffffffffffffffffffffffffffffffffffff03821115611cd057611ccf611863565b5b828201905092915050565b7f4e487b7100000000000000000000000000000000000000000000000000000000600052603260045260246000fdfea2646970667358221220c5cb2c01823cb6a0b16eafb656c79f4547adac3f6d681213e76004f14ccd3cfc64736f6c634300080b0033",
  "immutableReferences": {},
  "source": "// SPDX-License-Identifier: MIT\r\npragma solidity ^0.8.0;\r\n\r\nimport \"./newPersonalNFT.sol\";\r\nimport \"./newToken.sol\";\r\n\r\ncontract MyContact {\r\n    address private nftContract;\r\n    address private tokenContract;\r\n    constructor(address nftAddress,address tokenAddress) {\r\n        nftContract = nftAddress;\r\n        tokenContract = tokenAddress;\r\n    }\r\n\r\n    enum Status { ACTIVE, INACTIVE, SOLD }\r\n\r\n    struct Listing {\r\n        uint id;\r\n        uint amount;\r\n        address owner;\r\n        uint price;\r\n        Status status;\r\n    }\r\n\r\n    uint public _listingId = 0; \r\n    mapping(uint => Listing) public _listing;\r\n\r\n    function onERC1155Received(address, address, uint256, uint256, bytes memory) public virtual returns (bytes4) {\r\n        return this.onERC1155Received.selector;\r\n    }\r\n\r\n    function listNft(uint nftId, uint amount, uint price) public {\r\n        newNft n = newNft(nftContract);\r\n        uint balance = n.balanceOf(msg.sender, nftId);\r\n        require(balance >= amount, \"Amount to be listed is more than amount owned\");\r\n        Listing memory list = Listing(nftId, amount, msg.sender, price, Status.ACTIVE);\r\n        _listingId ++;\r\n        _listing[_listingId] = list;\r\n        // User needs to approve this contract address from Token Contract\r\n        n.safeTransferFrom(msg.sender, address(this), nftId, amount, \"\");\r\n    }\r\n\r\n    function unlistNft(uint listingId, uint amount) public {\r\n        newNft n = newNft(nftContract);\r\n        Listing memory list = _listing[listingId];\r\n        require(list.owner == msg.sender, \"You are not the owner of this NFT\");\r\n        uint amount_available = list.amount;\r\n        require(amount_available >= amount, \"Specified Amount not available\");\r\n\r\n        // transfer NFT back to owner\r\n        n.setApprovalForAll(msg.sender, true);\r\n        n.safeTransferFrom(address(this), msg.sender, list.id, amount, \"\");\r\n\r\n        // updating old listing\r\n        bool newListingRequired = false;\r\n        uint remaining_amount = 0;\r\n        list.status = Status.INACTIVE;\r\n        if(amount_available > amount) {\r\n            newListingRequired = true;\r\n            remaining_amount = amount_available - amount;\r\n            list.amount = amount;\r\n        }\r\n        _listing[listingId] = list;\r\n\r\n        // creating new listing\r\n        if(newListingRequired == true) {\r\n            Listing memory newList = Listing(list.id, remaining_amount, list.owner, list.price, Status.ACTIVE);\r\n            _listingId ++;\r\n            _listing[_listingId] = newList;\r\n        }\r\n    }\r\n\r\n    function buyNFT(uint listingId, uint amount) public {\r\n        Token t = Token(tokenContract);\r\n        newNft n = newNft(nftContract);\r\n        uint balance = t.balanceOf(msg.sender);\r\n        Listing memory list = _listing[listingId];\r\n        uint amount_available = list.amount;\r\n        require(amount_available >= amount, \"Specified Amount not available\");\r\n        uint total_cost = amount * list.price;\r\n        require(balance >= total_cost, \"You dont have enough tokens\");\r\n        address nft_owner = list.owner;\r\n\r\n        // Sending NFT to buyer\r\n        n.setApprovalForAll(msg.sender, true);\r\n        n.safeTransferFrom(address(this), msg.sender, list.id, amount, \"\");\r\n\r\n        // Sending Tokens to seller\r\n        // User needs to increase the allowance of the contract for the total cost amount\r\n        t.transferFrom(msg.sender, nft_owner, total_cost);\r\n\r\n        // updating old listing\r\n        bool newListingRequired = false;\r\n        uint remaining_amount = 0;\r\n        list.status = Status.SOLD;\r\n        if(amount_available > amount) {\r\n            newListingRequired = true;\r\n            remaining_amount = amount_available - amount;\r\n            list.amount = amount;\r\n        }\r\n        _listing[listingId] = list;\r\n\r\n        // creating new listing\r\n        if(newListingRequired == true) {\r\n            Listing memory newList = Listing(list.id, remaining_amount, list.owner, list.price, Status.ACTIVE);\r\n            _listingId ++;\r\n            _listing[_listingId] = newList;\r\n        }\r\n    }\r\n\r\n    function getListing() view public returns(Listing[] memory) {\r\n        Listing[] memory list = new Listing[](_listingId + 1);\r\n        list[0] = Listing(0,0,address(0),0,Status.INACTIVE);\r\n        for (uint i = 1; i <= _listingId; i++ ) {  \r\n            list[i] = _listing[i];\r\n        }\r\n        return list;\r\n    }\r\n}",
  "sourcePath": "C:\\Users\\paric\\OneDrive\\Desktop\\solidity projects\\Custom Token - NFT - marketplace contract\\contracts\\MyContract.sol",
  "compiler": {
    "name": "solc",
    "version": "0.8.11+commit.d7f03943.Emscripten.clang"
  },
  "schemaVersion": "3.4.5",
  "updatedAt": "2022-03-09T11:24:17.174Z",
  "networkType": "ethereum",
  "devdoc": {
    "kind": "dev",
    "methods": {},
    "version": 1
  },
  "userdoc": {
    "kind": "user",
    "methods": {},
    "version": 1
  }
}