{
  "contractName": "MyContact",
  "abi": [
    {
      "inputs": [
        {
          "internalType": "uint256",
          "name": "",
          "type": "uint256"
        }
      ],
      "name": "_listing",
      "outputs": [
        {
          "internalType": "uint256",
          "name": "id",
          "type": "uint256"
        },
        {
          "internalType": "uint256",
          "name": "amount",
          "type": "uint256"
        },
        {
          "internalType": "address",
          "name": "owner",
          "type": "address"
        },
        {
          "internalType": "enum MyContact.Status",
          "name": "status",
          "type": "uint8"
        }
      ],
      "stateMutability": "view",
      "type": "function",
      "constant": true
    },
    {
      "inputs": [
        {
          "internalType": "address",
          "name": "",
          "type": "address"
        },
        {
          "internalType": "address",
          "name": "",
          "type": "address"
        },
        {
          "internalType": "uint256",
          "name": "",
          "type": "uint256"
        },
        {
          "internalType": "uint256",
          "name": "",
          "type": "uint256"
        },
        {
          "internalType": "bytes",
          "name": "",
          "type": "bytes"
        }
      ],
      "name": "onERC1155Received",
      "outputs": [
        {
          "internalType": "bytes4",
          "name": "",
          "type": "bytes4"
        }
      ],
      "stateMutability": "nonpayable",
      "type": "function"
    },
    {
      "inputs": [
        {
          "internalType": "uint256",
          "name": "nftId",
          "type": "uint256"
        },
        {
          "internalType": "uint256",
          "name": "amount",
          "type": "uint256"
        }
      ],
      "name": "listNft",
      "outputs": [],
      "stateMutability": "nonpayable",
      "type": "function"
    }
  ],
  "bytecode": "0x608060405273d9145cce52d386f254917e481eb44e9943f391386000806101000a81548173ffffffffffffffffffffffffffffffffffffffff021916908373ffffffffffffffffffffffffffffffffffffffff160217905550600060015534801561006957600080fd5b50610ad0806100796000396000f3fe608060405234801561001057600080fd5b50600436106100415760003560e01c8063f23a6e6114610046578063fc48592a14610076578063fe8723e1146100a9575b600080fd5b610060600480360381019061005b91906105ff565b6100c5565b60405161006d91906106d1565b60405180910390f35b610090600480360381019061008b91906106ec565b6100da565b6040516100a094939291906107ae565b60405180910390f35b6100c360048036038101906100be91906107f3565b610137565b005b600063f23a6e6160e01b905095945050505050565b60026020528060005260406000206000915090508060000154908060010154908060020160009054906101000a900473ffffffffffffffffffffffffffffffffffffffff16908060020160149054906101000a900460ff16905084565b60008060009054906101000a900473ffffffffffffffffffffffffffffffffffffffff16905060008173ffffffffffffffffffffffffffffffffffffffff1662fdd58e33866040518363ffffffff1660e01b8152600401610199929190610833565b602060405180830381865afa1580156101b6573d6000803e3d6000fd5b505050506040513d601f19601f820116820180604052508101906101da9190610871565b90508281101561021f576040517f08c379a000000000000000000000000000000000000000000000000000000000815260040161021690610921565b60405180910390fd5b600060405180608001604052808681526020018581526020013373ffffffffffffffffffffffffffffffffffffffff1681526020016000600281111561026857610267610737565b5b81525090506001600081548092919061028090610970565b919050555080600260006001548152602001908152602001600020600082015181600001556020820151816001015560408201518160020160006101000a81548173ffffffffffffffffffffffffffffffffffffffff021916908373ffffffffffffffffffffffffffffffffffffffff16021790555060608201518160020160146101000a81548160ff0219169083600281111561032157610320610737565b5b02179055509050508273ffffffffffffffffffffffffffffffffffffffff16637ae7264e333060016040518463ffffffff1660e01b8152600401610367939291906109d4565b600060405180830381600087803b15801561038157600080fd5b505af1158015610395573d6000803e3d6000fd5b505050508273ffffffffffffffffffffffffffffffffffffffff1663f242432a333088886040518563ffffffff1660e01b81526004016103d89493929190610a42565b600060405180830381600087803b1580156103f257600080fd5b505af1158015610406573d6000803e3d6000fd5b505050505050505050565b6000604051905090565b600080fd5b600080fd5b600073ffffffffffffffffffffffffffffffffffffffff82169050919050565b600061045082610425565b9050919050565b61046081610445565b811461046b57600080fd5b50565b60008135905061047d81610457565b92915050565b6000819050919050565b61049681610483565b81146104a157600080fd5b50565b6000813590506104b38161048d565b92915050565b600080fd5b600080fd5b6000601f19601f8301169050919050565b7f4e487b7100000000000000000000000000000000000000000000000000000000600052604160045260246000fd5b61050c826104c3565b810181811067ffffffffffffffff8211171561052b5761052a6104d4565b5b80604052505050565b600061053e610411565b905061054a8282610503565b919050565b600067ffffffffffffffff82111561056a576105696104d4565b5b610573826104c3565b9050602081019050919050565b82818337600083830152505050565b60006105a261059d8461054f565b610534565b9050828152602081018484840111156105be576105bd6104be565b5b6105c9848285610580565b509392505050565b600082601f8301126105e6576105e56104b9565b5b81356105f684826020860161058f565b91505092915050565b600080600080600060a0868803121561061b5761061a61041b565b5b60006106298882890161046e565b955050602061063a8882890161046e565b945050604061064b888289016104a4565b935050606061065c888289016104a4565b925050608086013567ffffffffffffffff81111561067d5761067c610420565b5b610689888289016105d1565b9150509295509295909350565b60007fffffffff0000000000000000000000000000000000000000000000000000000082169050919050565b6106cb81610696565b82525050565b60006020820190506106e660008301846106c2565b92915050565b6000602082840312156107025761070161041b565b5b6000610710848285016104a4565b91505092915050565b61072281610483565b82525050565b61073181610445565b82525050565b7f4e487b7100000000000000000000000000000000000000000000000000000000600052602160045260246000fd5b6003811061077757610776610737565b5b50565b600081905061078882610766565b919050565b60006107988261077a565b9050919050565b6107a88161078d565b82525050565b60006080820190506107c36000830187610719565b6107d06020830186610719565b6107dd6040830185610728565b6107ea606083018461079f565b95945050505050565b6000806040838503121561080a5761080961041b565b5b6000610818858286016104a4565b9250506020610829858286016104a4565b9150509250929050565b60006040820190506108486000830185610728565b6108556020830184610719565b9392505050565b60008151905061086b8161048d565b92915050565b6000602082840312156108875761088661041b565b5b60006108958482850161085c565b91505092915050565b600082825260208201905092915050565b7f416d6f756e7420746f206265206c6973746564206973206d6f7265207468616e60008201527f20616d6f756e74206f776e656400000000000000000000000000000000000000602082015250565b600061090b602d8361089e565b9150610916826108af565b604082019050919050565b6000602082019050818103600083015261093a816108fe565b9050919050565b7f4e487b7100000000000000000000000000000000000000000000000000000000600052601160045260246000fd5b600061097b82610483565b91507fffffffffffffffffffffffffffffffffffffffffffffffffffffffffffffffff8214156109ae576109ad610941565b5b600182019050919050565b60008115159050919050565b6109ce816109b9565b82525050565b60006060820190506109e96000830186610728565b6109f66020830185610728565b610a0360408301846109c5565b949350505050565b600082825260208201905092915050565b50565b6000610a2c600083610a0b565b9150610a3782610a1c565b600082019050919050565b600060a082019050610a576000830187610728565b610a646020830186610728565b610a716040830185610719565b610a7e6060830184610719565b8181036080830152610a8f81610a1f565b90509594505050505056fea26469706673582212202bac1f5e1c158522c49cb5168a42efa8a7b445802cb3485fcfd681cb8be17d1964736f6c634300080b0033",
  "immutableReferences": {},
  "source": "// SPDX-License-Identifier: MIT\r\npragma solidity ^0.8.0;\r\n\r\nimport \"./newPersonalNFT.sol\";\r\n\r\ncontract MyContact {\r\n    enum Status { ACTIVE, INACTIVE, SOLD }\r\n\r\n    address private nftContract = 0xd9145CCE52D386f254917e481eB44e9943F39138;\r\n\r\n    struct Listing {\r\n        uint id;\r\n        uint amount;\r\n        address owner;\r\n        Status status;\r\n    }\r\n\r\n    uint _listingId = 0; \r\n    mapping(uint => Listing) public _listing;\r\n\r\n    function onERC1155Received(address, address, uint256, uint256, bytes memory) public virtual returns (bytes4) {\r\n        return this.onERC1155Received.selector;\r\n    }\r\n\r\n    function listNft(uint nftId, uint amount) public {\r\n        newNft n = newNft(nftContract);\r\n        uint balance = n.balanceOf(msg.sender, nftId);\r\n        require(balance >= amount, \"Amount to be listed is more than amount owned\");\r\n        Listing memory list = Listing(nftId, amount, msg.sender, Status.ACTIVE);\r\n        _listingId ++;\r\n        _listing[_listingId] = list;\r\n        n.customApprove(msg.sender, address(this), true);\r\n        n.safeTransferFrom(msg.sender, address(this), nftId, amount, \"\");\r\n    }\r\n}",
  "sourcePath": "C:\\Users\\paric\\OneDrive\\Desktop\\solidity projects\\Custom Token - NFT - marketplace contract\\contracts\\MyContract.sol",
  "compiler": {
    "name": "solc",
    "version": "0.8.11+commit.d7f03943.Emscripten.clang"
  },
  "schemaVersion": "3.4.5",
  "updatedAt": "2022-02-27T13:28:19.571Z",
  "networkType": "ethereum",
  "devdoc": {
    "kind": "dev",
    "methods": {},
    "version": 1
  },
  "userdoc": {
    "kind": "user",
    "methods": {},
    "version": 1
  }
}