{
  "contractName": "newNft",
  "abi": [
    {
      "inputs": [],
      "stateMutability": "nonpayable",
      "type": "constructor"
    },
    {
      "anonymous": false,
      "inputs": [
        {
          "indexed": true,
          "internalType": "address",
          "name": "account",
          "type": "address"
        },
        {
          "indexed": true,
          "internalType": "address",
          "name": "operator",
          "type": "address"
        },
        {
          "indexed": false,
          "internalType": "bool",
          "name": "approved",
          "type": "bool"
        }
      ],
      "name": "ApprovalForAll",
      "type": "event"
    },
    {
      "anonymous": false,
      "inputs": [
        {
          "indexed": true,
          "internalType": "address",
          "name": "operator",
          "type": "address"
        },
        {
          "indexed": true,
          "internalType": "address",
          "name": "from",
          "type": "address"
        },
        {
          "indexed": true,
          "internalType": "address",
          "name": "to",
          "type": "address"
        },
        {
          "indexed": false,
          "internalType": "uint256[]",
          "name": "ids",
          "type": "uint256[]"
        },
        {
          "indexed": false,
          "internalType": "uint256[]",
          "name": "values",
          "type": "uint256[]"
        }
      ],
      "name": "TransferBatch",
      "type": "event"
    },
    {
      "anonymous": false,
      "inputs": [
        {
          "indexed": true,
          "internalType": "address",
          "name": "operator",
          "type": "address"
        },
        {
          "indexed": true,
          "internalType": "address",
          "name": "from",
          "type": "address"
        },
        {
          "indexed": true,
          "internalType": "address",
          "name": "to",
          "type": "address"
        },
        {
          "indexed": false,
          "internalType": "uint256",
          "name": "id",
          "type": "uint256"
        },
        {
          "indexed": false,
          "internalType": "uint256",
          "name": "value",
          "type": "uint256"
        }
      ],
      "name": "TransferSingle",
      "type": "event"
    },
    {
      "anonymous": false,
      "inputs": [
        {
          "indexed": false,
          "internalType": "string",
          "name": "value",
          "type": "string"
        },
        {
          "indexed": true,
          "internalType": "uint256",
          "name": "id",
          "type": "uint256"
        }
      ],
      "name": "URI",
      "type": "event"
    },
    {
      "inputs": [
        {
          "internalType": "address",
          "name": "account",
          "type": "address"
        },
        {
          "internalType": "uint256",
          "name": "id",
          "type": "uint256"
        }
      ],
      "name": "balanceOf",
      "outputs": [
        {
          "internalType": "uint256",
          "name": "",
          "type": "uint256"
        }
      ],
      "stateMutability": "view",
      "type": "function",
      "constant": true
    },
    {
      "inputs": [
        {
          "internalType": "address[]",
          "name": "accounts",
          "type": "address[]"
        },
        {
          "internalType": "uint256[]",
          "name": "ids",
          "type": "uint256[]"
        }
      ],
      "name": "balanceOfBatch",
      "outputs": [
        {
          "internalType": "uint256[]",
          "name": "",
          "type": "uint256[]"
        }
      ],
      "stateMutability": "view",
      "type": "function",
      "constant": true
    },
    {
      "inputs": [
        {
          "internalType": "address",
          "name": "account",
          "type": "address"
        },
        {
          "internalType": "address",
          "name": "operator",
          "type": "address"
        }
      ],
      "name": "isApprovedForAll",
      "outputs": [
        {
          "internalType": "bool",
          "name": "",
          "type": "bool"
        }
      ],
      "stateMutability": "view",
      "type": "function",
      "constant": true
    },
    {
      "inputs": [],
      "name": "owner",
      "outputs": [
        {
          "internalType": "address",
          "name": "",
          "type": "address"
        }
      ],
      "stateMutability": "view",
      "type": "function",
      "constant": true
    },
    {
      "inputs": [
        {
          "internalType": "address",
          "name": "from",
          "type": "address"
        },
        {
          "internalType": "address",
          "name": "to",
          "type": "address"
        },
        {
          "internalType": "uint256[]",
          "name": "ids",
          "type": "uint256[]"
        },
        {
          "internalType": "uint256[]",
          "name": "amounts",
          "type": "uint256[]"
        },
        {
          "internalType": "bytes",
          "name": "data",
          "type": "bytes"
        }
      ],
      "name": "safeBatchTransferFrom",
      "outputs": [],
      "stateMutability": "nonpayable",
      "type": "function"
    },
    {
      "inputs": [
        {
          "internalType": "address",
          "name": "from",
          "type": "address"
        },
        {
          "internalType": "address",
          "name": "to",
          "type": "address"
        },
        {
          "internalType": "uint256",
          "name": "id",
          "type": "uint256"
        },
        {
          "internalType": "uint256",
          "name": "amount",
          "type": "uint256"
        },
        {
          "internalType": "bytes",
          "name": "data",
          "type": "bytes"
        }
      ],
      "name": "safeTransferFrom",
      "outputs": [],
      "stateMutability": "nonpayable",
      "type": "function"
    },
    {
      "inputs": [
        {
          "internalType": "address",
          "name": "operator",
          "type": "address"
        },
        {
          "internalType": "bool",
          "name": "approved",
          "type": "bool"
        }
      ],
      "name": "setApprovalForAll",
      "outputs": [],
      "stateMutability": "nonpayable",
      "type": "function"
    },
    {
      "inputs": [
        {
          "internalType": "bytes4",
          "name": "interfaceId",
          "type": "bytes4"
        }
      ],
      "name": "supportsInterface",
      "outputs": [
        {
          "internalType": "bool",
          "name": "",
          "type": "bool"
        }
      ],
      "stateMutability": "view",
      "type": "function",
      "constant": true
    },
    {
      "inputs": [],
      "name": "triggers",
      "outputs": [
        {
          "internalType": "uint256",
          "name": "",
          "type": "uint256"
        }
      ],
      "stateMutability": "view",
      "type": "function",
      "constant": true
    },
    {
      "inputs": [
        {
          "internalType": "uint256",
          "name": "",
          "type": "uint256"
        }
      ],
      "name": "uri",
      "outputs": [
        {
          "internalType": "string",
          "name": "",
          "type": "string"
        }
      ],
      "stateMutability": "view",
      "type": "function",
      "constant": true
    },
    {
      "inputs": [
        {
          "internalType": "uint256",
          "name": "id",
          "type": "uint256"
        },
        {
          "internalType": "uint256",
          "name": "amount",
          "type": "uint256"
        }
      ],
      "name": "mint",
      "outputs": [],
      "stateMutability": "nonpayable",
      "type": "function"
    }
  ],
  "bytecode": "0x608060405260006004553480156200001657600080fd5b5060405180606001604052806027815260200162002b9f602791396200004281620000a460201b60201c565b5033600360006101000a81548173ffffffffffffffffffffffffffffffffffffffff021916908373ffffffffffffffffffffffffffffffffffffffff160217905550600460008154809291906200009990620001a9565b91905055506200025c565b8060029080519060200190620000bc929190620000c0565b5050565b828054620000ce9062000226565b90600052602060002090601f016020900481019282620000f257600085556200013e565b82601f106200010d57805160ff19168380011785556200013e565b828001600101855582156200013e579182015b828111156200013d57825182559160200191906001019062000120565b5b5090506200014d919062000151565b5090565b5b808211156200016c57600081600090555060010162000152565b5090565b7f4e487b7100000000000000000000000000000000000000000000000000000000600052601160045260246000fd5b6000819050919050565b6000620001b6826200019f565b91507fffffffffffffffffffffffffffffffffffffffffffffffffffffffffffffffff821415620001ec57620001eb62000170565b5b600182019050919050565b7f4e487b7100000000000000000000000000000000000000000000000000000000600052602260045260246000fd5b600060028204905060018216806200023f57607f821691505b60208210811415620002565762000255620001f7565b5b50919050565b612933806200026c6000396000f3fe608060405234801561001057600080fd5b50600436106100a85760003560e01c80634e1273f4116100715780634e1273f4146101755780637bbb19dc146101a55780638da5cb5b146101c3578063a22cb465146101e1578063e985e9c5146101fd578063f242432a1461022d576100a8565b8062fdd58e146100ad57806301ffc9a7146100dd5780630e89341c1461010d5780631b2ef1ca1461013d5780632eb2c2d614610159575b600080fd5b6100c760048036038101906100c2919061163a565b610249565b6040516100d49190611689565b60405180910390f35b6100f760048036038101906100f291906116fc565b610312565b6040516101049190611744565b60405180910390f35b6101276004803603810190610122919061175f565b6103f4565b6040516101349190611825565b60405180910390f35b61015760048036038101906101529190611847565b610488565b005b610173600480360381019061016e9190611a84565b610501565b005b61018f600480360381019061018a9190611c16565b6105a2565b60405161019c9190611d4c565b60405180910390f35b6101ad6106bb565b6040516101ba9190611689565b60405180910390f35b6101cb6106c1565b6040516101d89190611d7d565b60405180910390f35b6101fb60048036038101906101f69190611dc4565b6106e7565b005b61021760048036038101906102129190611e04565b6106fd565b6040516102249190611744565b60405180910390f35b61024760048036038101906102429190611e44565b610791565b005b60008073ffffffffffffffffffffffffffffffffffffffff168373ffffffffffffffffffffffffffffffffffffffff1614156102ba576040517f08c379a00000000000000000000000000000000000000000000000000000000081526004016102b190611f4d565b60405180910390fd5b60008083815260200190815260200160002060008473ffffffffffffffffffffffffffffffffffffffff1673ffffffffffffffffffffffffffffffffffffffff16815260200190815260200160002054905092915050565b60007fd9b67a26000000000000000000000000000000000000000000000000000000007bffffffffffffffffffffffffffffffffffffffffffffffffffffffff1916827bffffffffffffffffffffffffffffffffffffffffffffffffffffffff191614806103dd57507f0e89341c000000000000000000000000000000000000000000000000000000007bffffffffffffffffffffffffffffffffffffffffffffffffffffffff1916827bffffffffffffffffffffffffffffffffffffffffffffffffffffffff1916145b806103ed57506103ec82610832565b5b9050919050565b60606002805461040390611f9c565b80601f016020809104026020016040519081016040528092919081815260200182805461042f90611f9c565b801561047c5780601f106104515761010080835404028352916020019161047c565b820191906000526020600020905b81548152906001019060200180831161045f57829003601f168201915b50505050509050919050565b600360009054906101000a900473ffffffffffffffffffffffffffffffffffffffff1673ffffffffffffffffffffffffffffffffffffffff163373ffffffffffffffffffffffffffffffffffffffff16146104e257600080fd5b6104fd3383836040518060200160405280600081525061089c565b5050565b610509610a32565b73ffffffffffffffffffffffffffffffffffffffff168573ffffffffffffffffffffffffffffffffffffffff16148061054f575061054e85610549610a32565b6106fd565b5b61058e576040517f08c379a000000000000000000000000000000000000000000000000000000000815260040161058590612040565b60405180910390fd5b61059b8585858585610a3a565b5050505050565b606081518351146105e8576040517f08c379a00000000000000000000000000000000000000000000000000000000081526004016105df906120d2565b60405180910390fd5b6000835167ffffffffffffffff8111156106055761060461188c565b5b6040519080825280602002602001820160405280156106335781602001602082028036833780820191505090505b50905060005b84518110156106b057610680858281518110610658576106576120f2565b5b6020026020010151858381518110610673576106726120f2565b5b6020026020010151610249565b828281518110610693576106926120f2565b5b602002602001018181525050806106a990612150565b9050610639565b508091505092915050565b60045481565b600360009054906101000a900473ffffffffffffffffffffffffffffffffffffffff1681565b6106f96106f2610a32565b8383610d4e565b5050565b6000600160008473ffffffffffffffffffffffffffffffffffffffff1673ffffffffffffffffffffffffffffffffffffffff16815260200190815260200160002060008373ffffffffffffffffffffffffffffffffffffffff1673ffffffffffffffffffffffffffffffffffffffff16815260200190815260200160002060009054906101000a900460ff16905092915050565b610799610a32565b73ffffffffffffffffffffffffffffffffffffffff168573ffffffffffffffffffffffffffffffffffffffff1614806107df57506107de856107d9610a32565b6106fd565b5b61081e576040517f08c379a00000000000000000000000000000000000000000000000000000000081526004016108159061220b565b60405180910390fd5b61082b8585858585610ebb565b5050505050565b60007f01ffc9a7000000000000000000000000000000000000000000000000000000007bffffffffffffffffffffffffffffffffffffffffffffffffffffffff1916827bffffffffffffffffffffffffffffffffffffffffffffffffffffffff1916149050919050565b600073ffffffffffffffffffffffffffffffffffffffff168473ffffffffffffffffffffffffffffffffffffffff16141561090c576040517f08c379a00000000000000000000000000000000000000000000000000000000081526004016109039061229d565b60405180910390fd5b6000610916610a32565b9050610937816000876109288861113d565b6109318861113d565b876111b7565b8260008086815260200190815260200160002060008773ffffffffffffffffffffffffffffffffffffffff1673ffffffffffffffffffffffffffffffffffffffff168152602001908152602001600020600082825461099691906122bd565b925050819055508473ffffffffffffffffffffffffffffffffffffffff16600073ffffffffffffffffffffffffffffffffffffffff168273ffffffffffffffffffffffffffffffffffffffff167fc3d58168c5ae7397731d063d5bbf3d657854427343f4c083240f7aacaa2d0f628787604051610a14929190612313565b60405180910390a4610a2b816000878787876111bf565b5050505050565b600033905090565b8151835114610a7e576040517f08c379a0000000000000000000000000000000000000000000000000000000008152600401610a75906123ae565b60405180910390fd5b600073ffffffffffffffffffffffffffffffffffffffff168473ffffffffffffffffffffffffffffffffffffffff161415610aee576040517f08c379a0000000000000000000000000000000000000000000000000000000008152600401610ae590612440565b60405180910390fd5b6000610af8610a32565b9050610b088187878787876111b7565b60005b8451811015610cb9576000858281518110610b2957610b286120f2565b5b602002602001015190506000858381518110610b4857610b476120f2565b5b60200260200101519050600080600084815260200190815260200160002060008b73ffffffffffffffffffffffffffffffffffffffff1673ffffffffffffffffffffffffffffffffffffffff16815260200190815260200160002054905081811015610be9576040517f08c379a0000000000000000000000000000000000000000000000000000000008152600401610be0906124d2565b60405180910390fd5b81810360008085815260200190815260200160002060008c73ffffffffffffffffffffffffffffffffffffffff1673ffffffffffffffffffffffffffffffffffffffff168152602001908152602001600020819055508160008085815260200190815260200160002060008b73ffffffffffffffffffffffffffffffffffffffff1673ffffffffffffffffffffffffffffffffffffffff1681526020019081526020016000206000828254610c9e91906122bd565b9250508190555050505080610cb290612150565b9050610b0b565b508473ffffffffffffffffffffffffffffffffffffffff168673ffffffffffffffffffffffffffffffffffffffff168273ffffffffffffffffffffffffffffffffffffffff167f4a39dc06d4c0dbc64b70af90fd698a233a518aa5d07e595d983b8c0526c8f7fb8787604051610d309291906124f2565b60405180910390a4610d46818787878787611397565b505050505050565b8173ffffffffffffffffffffffffffffffffffffffff168373ffffffffffffffffffffffffffffffffffffffff161415610dbd576040517f08c379a0000000000000000000000000000000000000000000000000000000008152600401610db49061259b565b60405180910390fd5b80600160008573ffffffffffffffffffffffffffffffffffffffff1673ffffffffffffffffffffffffffffffffffffffff16815260200190815260200160002060008473ffffffffffffffffffffffffffffffffffffffff1673ffffffffffffffffffffffffffffffffffffffff16815260200190815260200160002060006101000a81548160ff0219169083151502179055508173ffffffffffffffffffffffffffffffffffffffff168373ffffffffffffffffffffffffffffffffffffffff167f17307eab39ab6107e8899845ad3d59bd9653f200f220920489ca2b5937696c3183604051610eae9190611744565b60405180910390a3505050565b600073ffffffffffffffffffffffffffffffffffffffff168473ffffffffffffffffffffffffffffffffffffffff161415610f2b576040517f08c379a0000000000000000000000000000000000000000000000000000000008152600401610f2290612440565b60405180910390fd5b6000610f35610a32565b9050610f55818787610f468861113d565b610f4f8861113d565b876111b7565b600080600086815260200190815260200160002060008873ffffffffffffffffffffffffffffffffffffffff1673ffffffffffffffffffffffffffffffffffffffff16815260200190815260200160002054905083811015610fec576040517f08c379a0000000000000000000000000000000000000000000000000000000008152600401610fe3906124d2565b60405180910390fd5b83810360008087815260200190815260200160002060008973ffffffffffffffffffffffffffffffffffffffff1673ffffffffffffffffffffffffffffffffffffffff168152602001908152602001600020819055508360008087815260200190815260200160002060008873ffffffffffffffffffffffffffffffffffffffff1673ffffffffffffffffffffffffffffffffffffffff16815260200190815260200160002060008282546110a191906122bd565b925050819055508573ffffffffffffffffffffffffffffffffffffffff168773ffffffffffffffffffffffffffffffffffffffff168373ffffffffffffffffffffffffffffffffffffffff167fc3d58168c5ae7397731d063d5bbf3d657854427343f4c083240f7aacaa2d0f62888860405161111e929190612313565b60405180910390a46111348288888888886111bf565b50505050505050565b60606000600167ffffffffffffffff81111561115c5761115b61188c565b5b60405190808252806020026020018201604052801561118a5781602001602082028036833780820191505090505b50905082816000815181106111a2576111a16120f2565b5b60200260200101818152505080915050919050565b505050505050565b6111de8473ffffffffffffffffffffffffffffffffffffffff1661156f565b1561138f578373ffffffffffffffffffffffffffffffffffffffff1663f23a6e6187878686866040518663ffffffff1660e01b8152600401611224959493929190612610565b6020604051808303816000875af192505050801561126057506040513d601f19601f8201168201806040525081019061125d919061267f565b60015b6113065761126c6126b9565b806308c379a014156112c957506112816126db565b8061128c57506112cb565b806040517f08c379a00000000000000000000000000000000000000000000000000000000081526004016112c09190611825565b60405180910390fd5b505b6040517f08c379a00000000000000000000000000000000000000000000000000000000081526004016112fd906127e3565b60405180910390fd5b63f23a6e6160e01b7bffffffffffffffffffffffffffffffffffffffffffffffffffffffff1916817bffffffffffffffffffffffffffffffffffffffffffffffffffffffff19161461138d576040517f08c379a000000000000000000000000000000000000000000000000000000000815260040161138490612875565b60405180910390fd5b505b505050505050565b6113b68473ffffffffffffffffffffffffffffffffffffffff1661156f565b15611567578373ffffffffffffffffffffffffffffffffffffffff1663bc197c8187878686866040518663ffffffff1660e01b81526004016113fc959493929190612895565b6020604051808303816000875af192505050801561143857506040513d601f19601f82011682018060405250810190611435919061267f565b60015b6114de576114446126b9565b806308c379a014156114a157506114596126db565b8061146457506114a3565b806040517f08c379a00000000000000000000000000000000000000000000000000000000081526004016114989190611825565b60405180910390fd5b505b6040517f08c379a00000000000000000000000000000000000000000000000000000000081526004016114d5906127e3565b60405180910390fd5b63bc197c8160e01b7bffffffffffffffffffffffffffffffffffffffffffffffffffffffff1916817bffffffffffffffffffffffffffffffffffffffffffffffffffffffff191614611565576040517f08c379a000000000000000000000000000000000000000000000000000000000815260040161155c90612875565b60405180910390fd5b505b505050505050565b6000808273ffffffffffffffffffffffffffffffffffffffff163b119050919050565b6000604051905090565b600080fd5b600080fd5b600073ffffffffffffffffffffffffffffffffffffffff82169050919050565b60006115d1826115a6565b9050919050565b6115e1816115c6565b81146115ec57600080fd5b50565b6000813590506115fe816115d8565b92915050565b6000819050919050565b61161781611604565b811461162257600080fd5b50565b6000813590506116348161160e565b92915050565b600080604083850312156116515761165061159c565b5b600061165f858286016115ef565b925050602061167085828601611625565b9150509250929050565b61168381611604565b82525050565b600060208201905061169e600083018461167a565b92915050565b60007fffffffff0000000000000000000000000000000000000000000000000000000082169050919050565b6116d9816116a4565b81146116e457600080fd5b50565b6000813590506116f6816116d0565b92915050565b6000602082840312156117125761171161159c565b5b6000611720848285016116e7565b91505092915050565b60008115159050919050565b61173e81611729565b82525050565b60006020820190506117596000830184611735565b92915050565b6000602082840312156117755761177461159c565b5b600061178384828501611625565b91505092915050565b600081519050919050565b600082825260208201905092915050565b60005b838110156117c65780820151818401526020810190506117ab565b838111156117d5576000848401525b50505050565b6000601f19601f8301169050919050565b60006117f78261178c565b6118018185611797565b93506118118185602086016117a8565b61181a816117db565b840191505092915050565b6000602082019050818103600083015261183f81846117ec565b905092915050565b6000806040838503121561185e5761185d61159c565b5b600061186c85828601611625565b925050602061187d85828601611625565b9150509250929050565b600080fd5b7f4e487b7100000000000000000000000000000000000000000000000000000000600052604160045260246000fd5b6118c4826117db565b810181811067ffffffffffffffff821117156118e3576118e261188c565b5b80604052505050565b60006118f6611592565b905061190282826118bb565b919050565b600067ffffffffffffffff8211156119225761192161188c565b5b602082029050602081019050919050565b600080fd5b600061194b61194684611907565b6118ec565b9050808382526020820190506020840283018581111561196e5761196d611933565b5b835b8181101561199757806119838882611625565b845260208401935050602081019050611970565b5050509392505050565b600082601f8301126119b6576119b5611887565b5b81356119c6848260208601611938565b91505092915050565b600080fd5b600067ffffffffffffffff8211156119ef576119ee61188c565b5b6119f8826117db565b9050602081019050919050565b82818337600083830152505050565b6000611a27611a22846119d4565b6118ec565b905082815260208101848484011115611a4357611a426119cf565b5b611a4e848285611a05565b509392505050565b600082601f830112611a6b57611a6a611887565b5b8135611a7b848260208601611a14565b91505092915050565b600080600080600060a08688031215611aa057611a9f61159c565b5b6000611aae888289016115ef565b9550506020611abf888289016115ef565b945050604086013567ffffffffffffffff811115611ae057611adf6115a1565b5b611aec888289016119a1565b935050606086013567ffffffffffffffff811115611b0d57611b0c6115a1565b5b611b19888289016119a1565b925050608086013567ffffffffffffffff811115611b3a57611b396115a1565b5b611b4688828901611a56565b9150509295509295909350565b600067ffffffffffffffff821115611b6e57611b6d61188c565b5b602082029050602081019050919050565b6000611b92611b8d84611b53565b6118ec565b90508083825260208201905060208402830185811115611bb557611bb4611933565b5b835b81811015611bde5780611bca88826115ef565b845260208401935050602081019050611bb7565b5050509392505050565b600082601f830112611bfd57611bfc611887565b5b8135611c0d848260208601611b7f565b91505092915050565b60008060408385031215611c2d57611c2c61159c565b5b600083013567ffffffffffffffff811115611c4b57611c4a6115a1565b5b611c5785828601611be8565b925050602083013567ffffffffffffffff811115611c7857611c776115a1565b5b611c84858286016119a1565b9150509250929050565b600081519050919050565b600082825260208201905092915050565b6000819050602082019050919050565b611cc381611604565b82525050565b6000611cd58383611cba565b60208301905092915050565b6000602082019050919050565b6000611cf982611c8e565b611d038185611c99565b9350611d0e83611caa565b8060005b83811015611d3f578151611d268882611cc9565b9750611d3183611ce1565b925050600181019050611d12565b5085935050505092915050565b60006020820190508181036000830152611d668184611cee565b905092915050565b611d77816115c6565b82525050565b6000602082019050611d926000830184611d6e565b92915050565b611da181611729565b8114611dac57600080fd5b50565b600081359050611dbe81611d98565b92915050565b60008060408385031215611ddb57611dda61159c565b5b6000611de9858286016115ef565b9250506020611dfa85828601611daf565b9150509250929050565b60008060408385031215611e1b57611e1a61159c565b5b6000611e29858286016115ef565b9250506020611e3a858286016115ef565b9150509250929050565b600080600080600060a08688031215611e6057611e5f61159c565b5b6000611e6e888289016115ef565b9550506020611e7f888289016115ef565b9450506040611e9088828901611625565b9350506060611ea188828901611625565b925050608086013567ffffffffffffffff811115611ec257611ec16115a1565b5b611ece88828901611a56565b9150509295509295909350565b7f455243313135353a2062616c616e636520717565727920666f7220746865207a60008201527f65726f2061646472657373000000000000000000000000000000000000000000602082015250565b6000611f37602b83611797565b9150611f4282611edb565b604082019050919050565b60006020820190508181036000830152611f6681611f2a565b9050919050565b7f4e487b7100000000000000000000000000000000000000000000000000000000600052602260045260246000fd5b60006002820490506001821680611fb457607f821691505b60208210811415611fc857611fc7611f6d565b5b50919050565b7f455243313135353a207472616e736665722063616c6c6572206973206e6f742060008201527f6f776e6572206e6f7220617070726f7665640000000000000000000000000000602082015250565b600061202a603283611797565b915061203582611fce565b604082019050919050565b600060208201905081810360008301526120598161201d565b9050919050565b7f455243313135353a206163636f756e747320616e6420696473206c656e67746860008201527f206d69736d617463680000000000000000000000000000000000000000000000602082015250565b60006120bc602983611797565b91506120c782612060565b604082019050919050565b600060208201905081810360008301526120eb816120af565b9050919050565b7f4e487b7100000000000000000000000000000000000000000000000000000000600052603260045260246000fd5b7f4e487b7100000000000000000000000000000000000000000000000000000000600052601160045260246000fd5b600061215b82611604565b91507fffffffffffffffffffffffffffffffffffffffffffffffffffffffffffffffff82141561218e5761218d612121565b5b600182019050919050565b7f455243313135353a2063616c6c6572206973206e6f74206f776e6572206e6f7260008201527f20617070726f7665640000000000000000000000000000000000000000000000602082015250565b60006121f5602983611797565b915061220082612199565b604082019050919050565b60006020820190508181036000830152612224816121e8565b9050919050565b7f455243313135353a206d696e7420746f20746865207a65726f2061646472657360008201527f7300000000000000000000000000000000000000000000000000000000000000602082015250565b6000612287602183611797565b91506122928261222b565b604082019050919050565b600060208201905081810360008301526122b68161227a565b9050919050565b60006122c882611604565b91506122d383611604565b9250827fffffffffffffffffffffffffffffffffffffffffffffffffffffffffffffffff0382111561230857612307612121565b5b828201905092915050565b6000604082019050612328600083018561167a565b612335602083018461167a565b9392505050565b7f455243313135353a2069647320616e6420616d6f756e7473206c656e6774682060008201527f6d69736d61746368000000000000000000000000000000000000000000000000602082015250565b6000612398602883611797565b91506123a38261233c565b604082019050919050565b600060208201905081810360008301526123c78161238b565b9050919050565b7f455243313135353a207472616e7366657220746f20746865207a65726f20616460008201527f6472657373000000000000000000000000000000000000000000000000000000602082015250565b600061242a602583611797565b9150612435826123ce565b604082019050919050565b600060208201905081810360008301526124598161241d565b9050919050565b7f455243313135353a20696e73756666696369656e742062616c616e636520666f60008201527f72207472616e7366657200000000000000000000000000000000000000000000602082015250565b60006124bc602a83611797565b91506124c782612460565b604082019050919050565b600060208201905081810360008301526124eb816124af565b9050919050565b6000604082019050818103600083015261250c8185611cee565b905081810360208301526125208184611cee565b90509392505050565b7f455243313135353a2073657474696e6720617070726f76616c2073746174757360008201527f20666f722073656c660000000000000000000000000000000000000000000000602082015250565b6000612585602983611797565b915061259082612529565b604082019050919050565b600060208201905081810360008301526125b481612578565b9050919050565b600081519050919050565b600082825260208201905092915050565b60006125e2826125bb565b6125ec81856125c6565b93506125fc8185602086016117a8565b612605816117db565b840191505092915050565b600060a0820190506126256000830188611d6e565b6126326020830187611d6e565b61263f604083018661167a565b61264c606083018561167a565b818103608083015261265e81846125d7565b90509695505050505050565b600081519050612679816116d0565b92915050565b6000602082840312156126955761269461159c565b5b60006126a38482850161266a565b91505092915050565b60008160e01c9050919050565b600060033d11156126d85760046000803e6126d56000516126ac565b90505b90565b600060443d10156126eb5761276e565b6126f3611592565b60043d036004823e80513d602482011167ffffffffffffffff8211171561271b57505061276e565b808201805167ffffffffffffffff811115612739575050505061276e565b80602083010160043d03850181111561275657505050505061276e565b612765826020018501866118bb565b82955050505050505b90565b7f455243313135353a207472616e7366657220746f206e6f6e204552433131353560008201527f526563656976657220696d706c656d656e746572000000000000000000000000602082015250565b60006127cd603483611797565b91506127d882612771565b604082019050919050565b600060208201905081810360008301526127fc816127c0565b9050919050565b7f455243313135353a204552433131353552656365697665722072656a6563746560008201527f6420746f6b656e73000000000000000000000000000000000000000000000000602082015250565b600061285f602883611797565b915061286a82612803565b604082019050919050565b6000602082019050818103600083015261288e81612852565b9050919050565b600060a0820190506128aa6000830188611d6e565b6128b76020830187611d6e565b81810360408301526128c98186611cee565b905081810360608301526128dd8185611cee565b905081810360808301526128f181846125d7565b9050969550505050505056fea2646970667358221220c97a80a99774dda51bb413fecd541f4c688adae046c4b71a5254f1f77d1bd8bd64736f6c634300080b003368747470733a2f2f67616d652e6578616d706c652f6170692f6974656d2f7b69647d2e6a736f6e",
  "immutableReferences": {},
  "source": "// SPDX-License-Identifier: MIT\r\npragma solidity ^0.8.1;\r\n\r\nimport \"@openzeppelin/contracts/token/ERC1155/ERC1155.sol\";\r\ncontract newNft is ERC1155 {\r\n    address public owner;\r\n    uint public triggers = 0;\r\n    constructor() ERC1155(\"https://game.example/api/item/{id}.json\") {\r\n       owner = msg.sender;\r\n       triggers ++;\r\n    }\r\n\r\n    modifier onlyOwner(){\r\n        require(msg.sender == owner);\r\n        _;\r\n    }\r\n\r\n    function mint (uint id ,uint amount) public onlyOwner {\r\n        _mint(msg.sender, id, amount, \"\");\r\n    }\r\n}",
  "sourcePath": "C:\\Users\\paric\\OneDrive\\Desktop\\solidity projects\\Custom Token - NFT - marketplace contract\\contracts\\newPersonalNFT.sol",
  "compiler": {
    "name": "solc",
    "version": "0.8.11+commit.d7f03943.Emscripten.clang"
  },
  "schemaVersion": "3.4.5",
  "updatedAt": "2022-03-08T05:15:39.422Z",
  "networkType": "ethereum",
  "devdoc": {
    "kind": "dev",
    "methods": {
      "balanceOf(address,uint256)": {
        "details": "See {IERC1155-balanceOf}. Requirements: - `account` cannot be the zero address."
      },
      "balanceOfBatch(address[],uint256[])": {
        "details": "See {IERC1155-balanceOfBatch}. Requirements: - `accounts` and `ids` must have the same length."
      },
      "isApprovedForAll(address,address)": {
        "details": "See {IERC1155-isApprovedForAll}."
      },
      "safeBatchTransferFrom(address,address,uint256[],uint256[],bytes)": {
        "details": "See {IERC1155-safeBatchTransferFrom}."
      },
      "safeTransferFrom(address,address,uint256,uint256,bytes)": {
        "details": "See {IERC1155-safeTransferFrom}."
      },
      "setApprovalForAll(address,bool)": {
        "details": "See {IERC1155-setApprovalForAll}."
      },
      "supportsInterface(bytes4)": {
        "details": "See {IERC165-supportsInterface}."
      },
      "uri(uint256)": {
        "details": "See {IERC1155MetadataURI-uri}. This implementation returns the same URI for *all* token types. It relies on the token type ID substitution mechanism https://eips.ethereum.org/EIPS/eip-1155#metadata[defined in the EIP]. Clients calling this function must replace the `\\{id\\}` substring with the actual token type ID."
      }
    },
    "version": 1
  },
  "userdoc": {
    "kind": "user",
    "methods": {},
    "version": 1
  }
}