{
  "contractName": "newNft",
  "abi": [
    {
      "inputs": [],
      "stateMutability": "nonpayable",
      "type": "constructor"
    },
    {
      "anonymous": false,
      "inputs": [
        {
          "indexed": true,
          "internalType": "address",
          "name": "account",
          "type": "address"
        },
        {
          "indexed": true,
          "internalType": "address",
          "name": "operator",
          "type": "address"
        },
        {
          "indexed": false,
          "internalType": "bool",
          "name": "approved",
          "type": "bool"
        }
      ],
      "name": "ApprovalForAll",
      "type": "event"
    },
    {
      "anonymous": false,
      "inputs": [
        {
          "indexed": true,
          "internalType": "address",
          "name": "operator",
          "type": "address"
        },
        {
          "indexed": true,
          "internalType": "address",
          "name": "from",
          "type": "address"
        },
        {
          "indexed": true,
          "internalType": "address",
          "name": "to",
          "type": "address"
        },
        {
          "indexed": false,
          "internalType": "uint256[]",
          "name": "ids",
          "type": "uint256[]"
        },
        {
          "indexed": false,
          "internalType": "uint256[]",
          "name": "values",
          "type": "uint256[]"
        }
      ],
      "name": "TransferBatch",
      "type": "event"
    },
    {
      "anonymous": false,
      "inputs": [
        {
          "indexed": true,
          "internalType": "address",
          "name": "operator",
          "type": "address"
        },
        {
          "indexed": true,
          "internalType": "address",
          "name": "from",
          "type": "address"
        },
        {
          "indexed": true,
          "internalType": "address",
          "name": "to",
          "type": "address"
        },
        {
          "indexed": false,
          "internalType": "uint256",
          "name": "id",
          "type": "uint256"
        },
        {
          "indexed": false,
          "internalType": "uint256",
          "name": "value",
          "type": "uint256"
        }
      ],
      "name": "TransferSingle",
      "type": "event"
    },
    {
      "anonymous": false,
      "inputs": [
        {
          "indexed": false,
          "internalType": "string",
          "name": "value",
          "type": "string"
        },
        {
          "indexed": true,
          "internalType": "uint256",
          "name": "id",
          "type": "uint256"
        }
      ],
      "name": "URI",
      "type": "event"
    },
    {
      "inputs": [
        {
          "internalType": "uint256",
          "name": "",
          "type": "uint256"
        }
      ],
      "name": "Ids",
      "outputs": [
        {
          "internalType": "uint256",
          "name": "",
          "type": "uint256"
        }
      ],
      "stateMutability": "view",
      "type": "function",
      "constant": true
    },
    {
      "inputs": [
        {
          "internalType": "address",
          "name": "account",
          "type": "address"
        },
        {
          "internalType": "uint256",
          "name": "id",
          "type": "uint256"
        }
      ],
      "name": "balanceOf",
      "outputs": [
        {
          "internalType": "uint256",
          "name": "",
          "type": "uint256"
        }
      ],
      "stateMutability": "view",
      "type": "function",
      "constant": true
    },
    {
      "inputs": [
        {
          "internalType": "address[]",
          "name": "accounts",
          "type": "address[]"
        },
        {
          "internalType": "uint256[]",
          "name": "ids",
          "type": "uint256[]"
        }
      ],
      "name": "balanceOfBatch",
      "outputs": [
        {
          "internalType": "uint256[]",
          "name": "",
          "type": "uint256[]"
        }
      ],
      "stateMutability": "view",
      "type": "function",
      "constant": true
    },
    {
      "inputs": [
        {
          "internalType": "address",
          "name": "account",
          "type": "address"
        },
        {
          "internalType": "address",
          "name": "operator",
          "type": "address"
        }
      ],
      "name": "isApprovedForAll",
      "outputs": [
        {
          "internalType": "bool",
          "name": "",
          "type": "bool"
        }
      ],
      "stateMutability": "view",
      "type": "function",
      "constant": true
    },
    {
      "inputs": [],
      "name": "owner",
      "outputs": [
        {
          "internalType": "address",
          "name": "",
          "type": "address"
        }
      ],
      "stateMutability": "view",
      "type": "function",
      "constant": true
    },
    {
      "inputs": [
        {
          "internalType": "address",
          "name": "from",
          "type": "address"
        },
        {
          "internalType": "address",
          "name": "to",
          "type": "address"
        },
        {
          "internalType": "uint256[]",
          "name": "ids",
          "type": "uint256[]"
        },
        {
          "internalType": "uint256[]",
          "name": "amounts",
          "type": "uint256[]"
        },
        {
          "internalType": "bytes",
          "name": "data",
          "type": "bytes"
        }
      ],
      "name": "safeBatchTransferFrom",
      "outputs": [],
      "stateMutability": "nonpayable",
      "type": "function"
    },
    {
      "inputs": [
        {
          "internalType": "address",
          "name": "from",
          "type": "address"
        },
        {
          "internalType": "address",
          "name": "to",
          "type": "address"
        },
        {
          "internalType": "uint256",
          "name": "id",
          "type": "uint256"
        },
        {
          "internalType": "uint256",
          "name": "amount",
          "type": "uint256"
        },
        {
          "internalType": "bytes",
          "name": "data",
          "type": "bytes"
        }
      ],
      "name": "safeTransferFrom",
      "outputs": [],
      "stateMutability": "nonpayable",
      "type": "function"
    },
    {
      "inputs": [
        {
          "internalType": "address",
          "name": "operator",
          "type": "address"
        },
        {
          "internalType": "bool",
          "name": "approved",
          "type": "bool"
        }
      ],
      "name": "setApprovalForAll",
      "outputs": [],
      "stateMutability": "nonpayable",
      "type": "function"
    },
    {
      "inputs": [
        {
          "internalType": "bytes4",
          "name": "interfaceId",
          "type": "bytes4"
        }
      ],
      "name": "supportsInterface",
      "outputs": [
        {
          "internalType": "bool",
          "name": "",
          "type": "bool"
        }
      ],
      "stateMutability": "view",
      "type": "function",
      "constant": true
    },
    {
      "inputs": [],
      "name": "triggers",
      "outputs": [
        {
          "internalType": "uint256",
          "name": "",
          "type": "uint256"
        }
      ],
      "stateMutability": "view",
      "type": "function",
      "constant": true
    },
    {
      "inputs": [
        {
          "internalType": "uint256",
          "name": "",
          "type": "uint256"
        }
      ],
      "name": "uri",
      "outputs": [
        {
          "internalType": "string",
          "name": "",
          "type": "string"
        }
      ],
      "stateMutability": "view",
      "type": "function",
      "constant": true
    },
    {
      "inputs": [
        {
          "internalType": "uint256",
          "name": "id",
          "type": "uint256"
        },
        {
          "internalType": "uint256",
          "name": "amount",
          "type": "uint256"
        }
      ],
      "name": "mint",
      "outputs": [],
      "stateMutability": "nonpayable",
      "type": "function"
    },
    {
      "inputs": [
        {
          "internalType": "address",
          "name": "account",
          "type": "address"
        }
      ],
      "name": "getOverallNfts",
      "outputs": [
        {
          "internalType": "uint256",
          "name": "",
          "type": "uint256"
        }
      ],
      "stateMutability": "view",
      "type": "function",
      "constant": true
    }
  ],
  "bytecode": "0x608060405260006004553480156200001657600080fd5b5060405180606001604052806027815260200162002d7f602791396200004281620000a460201b60201c565b5033600360006101000a81548173ffffffffffffffffffffffffffffffffffffffff021916908373ffffffffffffffffffffffffffffffffffffffff160217905550600460008154809291906200009990620001a9565b91905055506200025c565b8060029080519060200190620000bc929190620000c0565b5050565b828054620000ce9062000226565b90600052602060002090601f016020900481019282620000f257600085556200013e565b82601f106200010d57805160ff19168380011785556200013e565b828001600101855582156200013e579182015b828111156200013d57825182559160200191906001019062000120565b5b5090506200014d919062000151565b5090565b5b808211156200016c57600081600090555060010162000152565b5090565b7f4e487b7100000000000000000000000000000000000000000000000000000000600052601160045260246000fd5b6000819050919050565b6000620001b6826200019f565b91507fffffffffffffffffffffffffffffffffffffffffffffffffffffffffffffffff821415620001ec57620001eb62000170565b5b600182019050919050565b7f4e487b7100000000000000000000000000000000000000000000000000000000600052602260045260246000fd5b600060028204905060018216806200023f57607f821691505b60208210811415620002565762000255620001f7565b5b50919050565b612b13806200026c6000396000f3fe608060405234801561001057600080fd5b50600436106100ce5760003560e01c80637bbb19dc1161008c578063a22cb46511610066578063a22cb46514610237578063e8bc62dd14610253578063e985e9c514610283578063f242432a146102b3576100ce565b80637bbb19dc146101cb57806384094130146101e95780638da5cb5b14610219576100ce565b8062fdd58e146100d357806301ffc9a7146101035780630e89341c146101335780631b2ef1ca146101635780632eb2c2d61461017f5780634e1273f41461019b575b600080fd5b6100ed60048036038101906100e891906117ed565b6102cf565b6040516100fa919061183c565b60405180910390f35b61011d600480360381019061011891906118af565b610398565b60405161012a91906118f7565b60405180910390f35b61014d60048036038101906101489190611912565b61047a565b60405161015a91906119d8565b60405180910390f35b61017d600480360381019061017891906119fa565b61050e565b005b61019960048036038101906101949190611c37565b610590565b005b6101b560048036038101906101b09190611dc9565b610631565b6040516101c29190611eff565b60405180910390f35b6101d361074a565b6040516101e0919061183c565b60405180910390f35b61020360048036038101906101fe9190611912565b610750565b604051610210919061183c565b60405180910390f35b610221610774565b60405161022e9190611f30565b60405180910390f35b610251600480360381019061024c9190611f77565b61079a565b005b61026d60048036038101906102689190611fb7565b6107b0565b60405161027a919061183c565b60405180910390f35b61029d60048036038101906102989190611fe4565b610819565b6040516102aa91906118f7565b60405180910390f35b6102cd60048036038101906102c89190612024565b6108ad565b005b60008073ffffffffffffffffffffffffffffffffffffffff168373ffffffffffffffffffffffffffffffffffffffff161415610340576040517f08c379a00000000000000000000000000000000000000000000000000000000081526004016103379061212d565b60405180910390fd5b60008083815260200190815260200160002060008473ffffffffffffffffffffffffffffffffffffffff1673ffffffffffffffffffffffffffffffffffffffff16815260200190815260200160002054905092915050565b60007fd9b67a26000000000000000000000000000000000000000000000000000000007bffffffffffffffffffffffffffffffffffffffffffffffffffffffff1916827bffffffffffffffffffffffffffffffffffffffffffffffffffffffff1916148061046357507f0e89341c000000000000000000000000000000000000000000000000000000007bffffffffffffffffffffffffffffffffffffffffffffffffffffffff1916827bffffffffffffffffffffffffffffffffffffffffffffffffffffffff1916145b8061047357506104728261094e565b5b9050919050565b6060600280546104899061217c565b80601f01602080910402602001604051908101604052809291908181526020018280546104b59061217c565b80156105025780601f106104d757610100808354040283529160200191610502565b820191906000526020600020905b8154815290600101906020018083116104e557829003601f168201915b50505050509050919050565b600360009054906101000a900473ffffffffffffffffffffffffffffffffffffffff1673ffffffffffffffffffffffffffffffffffffffff163373ffffffffffffffffffffffffffffffffffffffff161461056857600080fd5b610583338383604051806020016040528060008152506109b8565b61058c82610b4e565b5050565b610598610be5565b73ffffffffffffffffffffffffffffffffffffffff168573ffffffffffffffffffffffffffffffffffffffff1614806105de57506105dd856105d8610be5565b610819565b5b61061d576040517f08c379a000000000000000000000000000000000000000000000000000000000815260040161061490612220565b60405180910390fd5b61062a8585858585610bed565b5050505050565b60608151835114610677576040517f08c379a000000000000000000000000000000000000000000000000000000000815260040161066e906122b2565b60405180910390fd5b6000835167ffffffffffffffff81111561069457610693611a3f565b5b6040519080825280602002602001820160405280156106c25781602001602082028036833780820191505090505b50905060005b845181101561073f5761070f8582815181106106e7576106e66122d2565b5b6020026020010151858381518110610702576107016122d2565b5b60200260200101516102cf565b828281518110610722576107216122d2565b5b6020026020010181815250508061073890612330565b90506106c8565b508091505092915050565b60045481565b6005818154811061076057600080fd5b906000526020600020016000915090505481565b600360009054906101000a900473ffffffffffffffffffffffffffffffffffffffff1681565b6107ac6107a5610be5565b8383610f01565b5050565b6000806000905060005b60058054905081101561080f576107ef84600583815481106107df576107de6122d2565b5b90600052602060002001546102cf565b826107fa9190612379565b9150808061080790612330565b9150506107ba565b8192505050919050565b6000600160008473ffffffffffffffffffffffffffffffffffffffff1673ffffffffffffffffffffffffffffffffffffffff16815260200190815260200160002060008373ffffffffffffffffffffffffffffffffffffffff1673ffffffffffffffffffffffffffffffffffffffff16815260200190815260200160002060009054906101000a900460ff16905092915050565b6108b5610be5565b73ffffffffffffffffffffffffffffffffffffffff168573ffffffffffffffffffffffffffffffffffffffff1614806108fb57506108fa856108f5610be5565b610819565b5b61093a576040517f08c379a000000000000000000000000000000000000000000000000000000000815260040161093190612441565b60405180910390fd5b610947858585858561106e565b5050505050565b60007f01ffc9a7000000000000000000000000000000000000000000000000000000007bffffffffffffffffffffffffffffffffffffffffffffffffffffffff1916827bffffffffffffffffffffffffffffffffffffffffffffffffffffffff1916149050919050565b600073ffffffffffffffffffffffffffffffffffffffff168473ffffffffffffffffffffffffffffffffffffffff161415610a28576040517f08c379a0000000000000000000000000000000000000000000000000000000008152600401610a1f906124d3565b60405180910390fd5b6000610a32610be5565b9050610a5381600087610a44886112f0565b610a4d886112f0565b8761136a565b8260008086815260200190815260200160002060008773ffffffffffffffffffffffffffffffffffffffff1673ffffffffffffffffffffffffffffffffffffffff1681526020019081526020016000206000828254610ab29190612379565b925050819055508473ffffffffffffffffffffffffffffffffffffffff16600073ffffffffffffffffffffffffffffffffffffffff168273ffffffffffffffffffffffffffffffffffffffff167fc3d58168c5ae7397731d063d5bbf3d657854427343f4c083240f7aacaa2d0f628787604051610b309291906124f3565b60405180910390a4610b4781600087878787611372565b5050505050565b60008060009050600091505b600580549050821015610ba9578260058381548110610b7c57610b7b6122d2565b5b90600052602060002001541415610b965760019050610ba9565b8180610ba190612330565b925050610b5a565b600015158115151415610be05760058390806001815401808255809150506001900390600052602060002001600090919091909150555b505050565b600033905090565b8151835114610c31576040517f08c379a0000000000000000000000000000000000000000000000000000000008152600401610c289061258e565b60405180910390fd5b600073ffffffffffffffffffffffffffffffffffffffff168473ffffffffffffffffffffffffffffffffffffffff161415610ca1576040517f08c379a0000000000000000000000000000000000000000000000000000000008152600401610c9890612620565b60405180910390fd5b6000610cab610be5565b9050610cbb81878787878761136a565b60005b8451811015610e6c576000858281518110610cdc57610cdb6122d2565b5b602002602001015190506000858381518110610cfb57610cfa6122d2565b5b60200260200101519050600080600084815260200190815260200160002060008b73ffffffffffffffffffffffffffffffffffffffff1673ffffffffffffffffffffffffffffffffffffffff16815260200190815260200160002054905081811015610d9c576040517f08c379a0000000000000000000000000000000000000000000000000000000008152600401610d93906126b2565b60405180910390fd5b81810360008085815260200190815260200160002060008c73ffffffffffffffffffffffffffffffffffffffff1673ffffffffffffffffffffffffffffffffffffffff168152602001908152602001600020819055508160008085815260200190815260200160002060008b73ffffffffffffffffffffffffffffffffffffffff1673ffffffffffffffffffffffffffffffffffffffff1681526020019081526020016000206000828254610e519190612379565b9250508190555050505080610e6590612330565b9050610cbe565b508473ffffffffffffffffffffffffffffffffffffffff168673ffffffffffffffffffffffffffffffffffffffff168273ffffffffffffffffffffffffffffffffffffffff167f4a39dc06d4c0dbc64b70af90fd698a233a518aa5d07e595d983b8c0526c8f7fb8787604051610ee39291906126d2565b60405180910390a4610ef981878787878761154a565b505050505050565b8173ffffffffffffffffffffffffffffffffffffffff168373ffffffffffffffffffffffffffffffffffffffff161415610f70576040517f08c379a0000000000000000000000000000000000000000000000000000000008152600401610f679061277b565b60405180910390fd5b80600160008573ffffffffffffffffffffffffffffffffffffffff1673ffffffffffffffffffffffffffffffffffffffff16815260200190815260200160002060008473ffffffffffffffffffffffffffffffffffffffff1673ffffffffffffffffffffffffffffffffffffffff16815260200190815260200160002060006101000a81548160ff0219169083151502179055508173ffffffffffffffffffffffffffffffffffffffff168373ffffffffffffffffffffffffffffffffffffffff167f17307eab39ab6107e8899845ad3d59bd9653f200f220920489ca2b5937696c318360405161106191906118f7565b60405180910390a3505050565b600073ffffffffffffffffffffffffffffffffffffffff168473ffffffffffffffffffffffffffffffffffffffff1614156110de576040517f08c379a00000000000000000000000000000000000000000000000000000000081526004016110d590612620565b60405180910390fd5b60006110e8610be5565b90506111088187876110f9886112f0565b611102886112f0565b8761136a565b600080600086815260200190815260200160002060008873ffffffffffffffffffffffffffffffffffffffff1673ffffffffffffffffffffffffffffffffffffffff1681526020019081526020016000205490508381101561119f576040517f08c379a0000000000000000000000000000000000000000000000000000000008152600401611196906126b2565b60405180910390fd5b83810360008087815260200190815260200160002060008973ffffffffffffffffffffffffffffffffffffffff1673ffffffffffffffffffffffffffffffffffffffff168152602001908152602001600020819055508360008087815260200190815260200160002060008873ffffffffffffffffffffffffffffffffffffffff1673ffffffffffffffffffffffffffffffffffffffff16815260200190815260200160002060008282546112549190612379565b925050819055508573ffffffffffffffffffffffffffffffffffffffff168773ffffffffffffffffffffffffffffffffffffffff168373ffffffffffffffffffffffffffffffffffffffff167fc3d58168c5ae7397731d063d5bbf3d657854427343f4c083240f7aacaa2d0f6288886040516112d19291906124f3565b60405180910390a46112e7828888888888611372565b50505050505050565b60606000600167ffffffffffffffff81111561130f5761130e611a3f565b5b60405190808252806020026020018201604052801561133d5781602001602082028036833780820191505090505b5090508281600081518110611355576113546122d2565b5b60200260200101818152505080915050919050565b505050505050565b6113918473ffffffffffffffffffffffffffffffffffffffff16611722565b15611542578373ffffffffffffffffffffffffffffffffffffffff1663f23a6e6187878686866040518663ffffffff1660e01b81526004016113d79594939291906127f0565b6020604051808303816000875af192505050801561141357506040513d601f19601f82011682018060405250810190611410919061285f565b60015b6114b95761141f612899565b806308c379a0141561147c57506114346128bb565b8061143f575061147e565b806040517f08c379a000000000000000000000000000000000000000000000000000000000815260040161147391906119d8565b60405180910390fd5b505b6040517f08c379a00000000000000000000000000000000000000000000000000000000081526004016114b0906129c3565b60405180910390fd5b63f23a6e6160e01b7bffffffffffffffffffffffffffffffffffffffffffffffffffffffff1916817bffffffffffffffffffffffffffffffffffffffffffffffffffffffff191614611540576040517f08c379a000000000000000000000000000000000000000000000000000000000815260040161153790612a55565b60405180910390fd5b505b505050505050565b6115698473ffffffffffffffffffffffffffffffffffffffff16611722565b1561171a578373ffffffffffffffffffffffffffffffffffffffff1663bc197c8187878686866040518663ffffffff1660e01b81526004016115af959493929190612a75565b6020604051808303816000875af19250505080156115eb57506040513d601f19601f820116820180604052508101906115e8919061285f565b60015b611691576115f7612899565b806308c379a01415611654575061160c6128bb565b806116175750611656565b806040517f08c379a000000000000000000000000000000000000000000000000000000000815260040161164b91906119d8565b60405180910390fd5b505b6040517f08c379a0000000000000000000000000000000000000000000000000000000008152600401611688906129c3565b60405180910390fd5b63bc197c8160e01b7bffffffffffffffffffffffffffffffffffffffffffffffffffffffff1916817bffffffffffffffffffffffffffffffffffffffffffffffffffffffff191614611718576040517f08c379a000000000000000000000000000000000000000000000000000000000815260040161170f90612a55565b60405180910390fd5b505b505050505050565b6000808273ffffffffffffffffffffffffffffffffffffffff163b119050919050565b6000604051905090565b600080fd5b600080fd5b600073ffffffffffffffffffffffffffffffffffffffff82169050919050565b600061178482611759565b9050919050565b61179481611779565b811461179f57600080fd5b50565b6000813590506117b18161178b565b92915050565b6000819050919050565b6117ca816117b7565b81146117d557600080fd5b50565b6000813590506117e7816117c1565b92915050565b600080604083850312156118045761180361174f565b5b6000611812858286016117a2565b9250506020611823858286016117d8565b9150509250929050565b611836816117b7565b82525050565b6000602082019050611851600083018461182d565b92915050565b60007fffffffff0000000000000000000000000000000000000000000000000000000082169050919050565b61188c81611857565b811461189757600080fd5b50565b6000813590506118a981611883565b92915050565b6000602082840312156118c5576118c461174f565b5b60006118d38482850161189a565b91505092915050565b60008115159050919050565b6118f1816118dc565b82525050565b600060208201905061190c60008301846118e8565b92915050565b6000602082840312156119285761192761174f565b5b6000611936848285016117d8565b91505092915050565b600081519050919050565b600082825260208201905092915050565b60005b8381101561197957808201518184015260208101905061195e565b83811115611988576000848401525b50505050565b6000601f19601f8301169050919050565b60006119aa8261193f565b6119b4818561194a565b93506119c481856020860161195b565b6119cd8161198e565b840191505092915050565b600060208201905081810360008301526119f2818461199f565b905092915050565b60008060408385031215611a1157611a1061174f565b5b6000611a1f858286016117d8565b9250506020611a30858286016117d8565b9150509250929050565b600080fd5b7f4e487b7100000000000000000000000000000000000000000000000000000000600052604160045260246000fd5b611a778261198e565b810181811067ffffffffffffffff82111715611a9657611a95611a3f565b5b80604052505050565b6000611aa9611745565b9050611ab58282611a6e565b919050565b600067ffffffffffffffff821115611ad557611ad4611a3f565b5b602082029050602081019050919050565b600080fd5b6000611afe611af984611aba565b611a9f565b90508083825260208201905060208402830185811115611b2157611b20611ae6565b5b835b81811015611b4a5780611b3688826117d8565b845260208401935050602081019050611b23565b5050509392505050565b600082601f830112611b6957611b68611a3a565b5b8135611b79848260208601611aeb565b91505092915050565b600080fd5b600067ffffffffffffffff821115611ba257611ba1611a3f565b5b611bab8261198e565b9050602081019050919050565b82818337600083830152505050565b6000611bda611bd584611b87565b611a9f565b905082815260208101848484011115611bf657611bf5611b82565b5b611c01848285611bb8565b509392505050565b600082601f830112611c1e57611c1d611a3a565b5b8135611c2e848260208601611bc7565b91505092915050565b600080600080600060a08688031215611c5357611c5261174f565b5b6000611c61888289016117a2565b9550506020611c72888289016117a2565b945050604086013567ffffffffffffffff811115611c9357611c92611754565b5b611c9f88828901611b54565b935050606086013567ffffffffffffffff811115611cc057611cbf611754565b5b611ccc88828901611b54565b925050608086013567ffffffffffffffff811115611ced57611cec611754565b5b611cf988828901611c09565b9150509295509295909350565b600067ffffffffffffffff821115611d2157611d20611a3f565b5b602082029050602081019050919050565b6000611d45611d4084611d06565b611a9f565b90508083825260208201905060208402830185811115611d6857611d67611ae6565b5b835b81811015611d915780611d7d88826117a2565b845260208401935050602081019050611d6a565b5050509392505050565b600082601f830112611db057611daf611a3a565b5b8135611dc0848260208601611d32565b91505092915050565b60008060408385031215611de057611ddf61174f565b5b600083013567ffffffffffffffff811115611dfe57611dfd611754565b5b611e0a85828601611d9b565b925050602083013567ffffffffffffffff811115611e2b57611e2a611754565b5b611e3785828601611b54565b9150509250929050565b600081519050919050565b600082825260208201905092915050565b6000819050602082019050919050565b611e76816117b7565b82525050565b6000611e888383611e6d565b60208301905092915050565b6000602082019050919050565b6000611eac82611e41565b611eb68185611e4c565b9350611ec183611e5d565b8060005b83811015611ef2578151611ed98882611e7c565b9750611ee483611e94565b925050600181019050611ec5565b5085935050505092915050565b60006020820190508181036000830152611f198184611ea1565b905092915050565b611f2a81611779565b82525050565b6000602082019050611f456000830184611f21565b92915050565b611f54816118dc565b8114611f5f57600080fd5b50565b600081359050611f7181611f4b565b92915050565b60008060408385031215611f8e57611f8d61174f565b5b6000611f9c858286016117a2565b9250506020611fad85828601611f62565b9150509250929050565b600060208284031215611fcd57611fcc61174f565b5b6000611fdb848285016117a2565b91505092915050565b60008060408385031215611ffb57611ffa61174f565b5b6000612009858286016117a2565b925050602061201a858286016117a2565b9150509250929050565b600080600080600060a086880312156120405761203f61174f565b5b600061204e888289016117a2565b955050602061205f888289016117a2565b9450506040612070888289016117d8565b9350506060612081888289016117d8565b925050608086013567ffffffffffffffff8111156120a2576120a1611754565b5b6120ae88828901611c09565b9150509295509295909350565b7f455243313135353a2062616c616e636520717565727920666f7220746865207a60008201527f65726f2061646472657373000000000000000000000000000000000000000000602082015250565b6000612117602b8361194a565b9150612122826120bb565b604082019050919050565b600060208201905081810360008301526121468161210a565b9050919050565b7f4e487b7100000000000000000000000000000000000000000000000000000000600052602260045260246000fd5b6000600282049050600182168061219457607f821691505b602082108114156121a8576121a761214d565b5b50919050565b7f455243313135353a207472616e736665722063616c6c6572206973206e6f742060008201527f6f776e6572206e6f7220617070726f7665640000000000000000000000000000602082015250565b600061220a60328361194a565b9150612215826121ae565b604082019050919050565b60006020820190508181036000830152612239816121fd565b9050919050565b7f455243313135353a206163636f756e747320616e6420696473206c656e67746860008201527f206d69736d617463680000000000000000000000000000000000000000000000602082015250565b600061229c60298361194a565b91506122a782612240565b604082019050919050565b600060208201905081810360008301526122cb8161228f565b9050919050565b7f4e487b7100000000000000000000000000000000000000000000000000000000600052603260045260246000fd5b7f4e487b7100000000000000000000000000000000000000000000000000000000600052601160045260246000fd5b600061233b826117b7565b91507fffffffffffffffffffffffffffffffffffffffffffffffffffffffffffffffff82141561236e5761236d612301565b5b600182019050919050565b6000612384826117b7565b915061238f836117b7565b9250827fffffffffffffffffffffffffffffffffffffffffffffffffffffffffffffffff038211156123c4576123c3612301565b5b828201905092915050565b7f455243313135353a2063616c6c6572206973206e6f74206f776e6572206e6f7260008201527f20617070726f7665640000000000000000000000000000000000000000000000602082015250565b600061242b60298361194a565b9150612436826123cf565b604082019050919050565b6000602082019050818103600083015261245a8161241e565b9050919050565b7f455243313135353a206d696e7420746f20746865207a65726f2061646472657360008201527f7300000000000000000000000000000000000000000000000000000000000000602082015250565b60006124bd60218361194a565b91506124c882612461565b604082019050919050565b600060208201905081810360008301526124ec816124b0565b9050919050565b6000604082019050612508600083018561182d565b612515602083018461182d565b9392505050565b7f455243313135353a2069647320616e6420616d6f756e7473206c656e6774682060008201527f6d69736d61746368000000000000000000000000000000000000000000000000602082015250565b600061257860288361194a565b91506125838261251c565b604082019050919050565b600060208201905081810360008301526125a78161256b565b9050919050565b7f455243313135353a207472616e7366657220746f20746865207a65726f20616460008201527f6472657373000000000000000000000000000000000000000000000000000000602082015250565b600061260a60258361194a565b9150612615826125ae565b604082019050919050565b60006020820190508181036000830152612639816125fd565b9050919050565b7f455243313135353a20696e73756666696369656e742062616c616e636520666f60008201527f72207472616e7366657200000000000000000000000000000000000000000000602082015250565b600061269c602a8361194a565b91506126a782612640565b604082019050919050565b600060208201905081810360008301526126cb8161268f565b9050919050565b600060408201905081810360008301526126ec8185611ea1565b905081810360208301526127008184611ea1565b90509392505050565b7f455243313135353a2073657474696e6720617070726f76616c2073746174757360008201527f20666f722073656c660000000000000000000000000000000000000000000000602082015250565b600061276560298361194a565b915061277082612709565b604082019050919050565b6000602082019050818103600083015261279481612758565b9050919050565b600081519050919050565b600082825260208201905092915050565b60006127c28261279b565b6127cc81856127a6565b93506127dc81856020860161195b565b6127e58161198e565b840191505092915050565b600060a0820190506128056000830188611f21565b6128126020830187611f21565b61281f604083018661182d565b61282c606083018561182d565b818103608083015261283e81846127b7565b90509695505050505050565b60008151905061285981611883565b92915050565b6000602082840312156128755761287461174f565b5b60006128838482850161284a565b91505092915050565b60008160e01c9050919050565b600060033d11156128b85760046000803e6128b560005161288c565b90505b90565b600060443d10156128cb5761294e565b6128d3611745565b60043d036004823e80513d602482011167ffffffffffffffff821117156128fb57505061294e565b808201805167ffffffffffffffff811115612919575050505061294e565b80602083010160043d03850181111561293657505050505061294e565b61294582602001850186611a6e565b82955050505050505b90565b7f455243313135353a207472616e7366657220746f206e6f6e204552433131353560008201527f526563656976657220696d706c656d656e746572000000000000000000000000602082015250565b60006129ad60348361194a565b91506129b882612951565b604082019050919050565b600060208201905081810360008301526129dc816129a0565b9050919050565b7f455243313135353a204552433131353552656365697665722072656a6563746560008201527f6420746f6b656e73000000000000000000000000000000000000000000000000602082015250565b6000612a3f60288361194a565b9150612a4a826129e3565b604082019050919050565b60006020820190508181036000830152612a6e81612a32565b9050919050565b600060a082019050612a8a6000830188611f21565b612a976020830187611f21565b8181036040830152612aa98186611ea1565b90508181036060830152612abd8185611ea1565b90508181036080830152612ad181846127b7565b9050969550505050505056fea2646970667358221220db7de138b5c8b2c2baaee271ba622a5dc6e5a4164208c5e7c5231fde0545701a64736f6c634300080b003368747470733a2f2f67616d652e6578616d706c652f6170692f6974656d2f7b69647d2e6a736f6e",
  "immutableReferences": {},
  "source": "// SPDX-License-Identifier: MIT\r\npragma solidity ^0.8.1;\r\n\r\nimport \"@openzeppelin/contracts/token/ERC1155/ERC1155.sol\";\r\ncontract newNft is ERC1155 {\r\n    address public owner;\r\n    uint public triggers = 0;\r\n    uint[] public Ids; \r\n    constructor() ERC1155(\"https://game.example/api/item/{id}.json\") {\r\n       owner = msg.sender;\r\n       triggers ++;\r\n    }\r\n\r\n    modifier onlyOwner(){\r\n        require(msg.sender == owner);\r\n        _;\r\n    }\r\n\r\n    function mint (uint id ,uint amount) public onlyOwner {\r\n        _mint(msg.sender, id, amount, \"\");\r\n        addId(id);\r\n    }\r\n\r\n    function addId(uint id) private {\r\n        uint i;    \r\n        bool found = false;\r\n        for(i = 0; i < Ids.length; i++)\r\n        {\r\n            if(Ids[i] == id)\r\n            {\r\n                found = true;\r\n                break;\r\n            }\r\n        }\r\n\r\n        if(found == false) {\r\n            Ids.push(id);\r\n        }\r\n    }\r\n\r\n    function getOverallNfts(address account) public view returns(uint){\r\n        uint count = 0;\r\n        uint i;\r\n        for(i = 0; i < Ids.length; i++)\r\n        {\r\n            count = count + balanceOf(account, Ids[i]);\r\n        }\r\n        return count;\r\n    }\r\n}",
  "sourcePath": "C:\\Users\\paric\\OneDrive\\Desktop\\solidity projects\\Custom Token - NFT - marketplace contract\\contracts\\newPersonalNFT.sol",
  "compiler": {
    "name": "solc",
    "version": "0.8.11+commit.d7f03943.Emscripten.clang"
  },
  "schemaVersion": "3.4.5",
  "updatedAt": "2022-03-14T09:29:16.529Z",
  "networkType": "ethereum",
  "devdoc": {
    "kind": "dev",
    "methods": {
      "balanceOf(address,uint256)": {
        "details": "See {IERC1155-balanceOf}. Requirements: - `account` cannot be the zero address."
      },
      "balanceOfBatch(address[],uint256[])": {
        "details": "See {IERC1155-balanceOfBatch}. Requirements: - `accounts` and `ids` must have the same length."
      },
      "isApprovedForAll(address,address)": {
        "details": "See {IERC1155-isApprovedForAll}."
      },
      "safeBatchTransferFrom(address,address,uint256[],uint256[],bytes)": {
        "details": "See {IERC1155-safeBatchTransferFrom}."
      },
      "safeTransferFrom(address,address,uint256,uint256,bytes)": {
        "details": "See {IERC1155-safeTransferFrom}."
      },
      "setApprovalForAll(address,bool)": {
        "details": "See {IERC1155-setApprovalForAll}."
      },
      "supportsInterface(bytes4)": {
        "details": "See {IERC165-supportsInterface}."
      },
      "uri(uint256)": {
        "details": "See {IERC1155MetadataURI-uri}. This implementation returns the same URI for *all* token types. It relies on the token type ID substitution mechanism https://eips.ethereum.org/EIPS/eip-1155#metadata[defined in the EIP]. Clients calling this function must replace the `\\{id\\}` substring with the actual token type ID."
      }
    },
    "version": 1
  },
  "userdoc": {
    "kind": "user",
    "methods": {},
    "version": 1
  }
}