{
  "contractName": "newNft",
  "abi": [
    {
      "inputs": [],
      "stateMutability": "nonpayable",
      "type": "constructor"
    },
    {
      "anonymous": false,
      "inputs": [
        {
          "indexed": true,
          "internalType": "address",
          "name": "account",
          "type": "address"
        },
        {
          "indexed": true,
          "internalType": "address",
          "name": "operator",
          "type": "address"
        },
        {
          "indexed": false,
          "internalType": "bool",
          "name": "approved",
          "type": "bool"
        }
      ],
      "name": "ApprovalForAll",
      "type": "event"
    },
    {
      "anonymous": false,
      "inputs": [
        {
          "indexed": true,
          "internalType": "address",
          "name": "operator",
          "type": "address"
        },
        {
          "indexed": true,
          "internalType": "address",
          "name": "from",
          "type": "address"
        },
        {
          "indexed": true,
          "internalType": "address",
          "name": "to",
          "type": "address"
        },
        {
          "indexed": false,
          "internalType": "uint256[]",
          "name": "ids",
          "type": "uint256[]"
        },
        {
          "indexed": false,
          "internalType": "uint256[]",
          "name": "values",
          "type": "uint256[]"
        }
      ],
      "name": "TransferBatch",
      "type": "event"
    },
    {
      "anonymous": false,
      "inputs": [
        {
          "indexed": true,
          "internalType": "address",
          "name": "operator",
          "type": "address"
        },
        {
          "indexed": true,
          "internalType": "address",
          "name": "from",
          "type": "address"
        },
        {
          "indexed": true,
          "internalType": "address",
          "name": "to",
          "type": "address"
        },
        {
          "indexed": false,
          "internalType": "uint256",
          "name": "id",
          "type": "uint256"
        },
        {
          "indexed": false,
          "internalType": "uint256",
          "name": "value",
          "type": "uint256"
        }
      ],
      "name": "TransferSingle",
      "type": "event"
    },
    {
      "anonymous": false,
      "inputs": [
        {
          "indexed": false,
          "internalType": "string",
          "name": "value",
          "type": "string"
        },
        {
          "indexed": true,
          "internalType": "uint256",
          "name": "id",
          "type": "uint256"
        }
      ],
      "name": "URI",
      "type": "event"
    },
    {
      "inputs": [
        {
          "internalType": "address",
          "name": "account",
          "type": "address"
        },
        {
          "internalType": "uint256",
          "name": "id",
          "type": "uint256"
        }
      ],
      "name": "balanceOf",
      "outputs": [
        {
          "internalType": "uint256",
          "name": "",
          "type": "uint256"
        }
      ],
      "stateMutability": "view",
      "type": "function",
      "constant": true
    },
    {
      "inputs": [
        {
          "internalType": "address[]",
          "name": "accounts",
          "type": "address[]"
        },
        {
          "internalType": "uint256[]",
          "name": "ids",
          "type": "uint256[]"
        }
      ],
      "name": "balanceOfBatch",
      "outputs": [
        {
          "internalType": "uint256[]",
          "name": "",
          "type": "uint256[]"
        }
      ],
      "stateMutability": "view",
      "type": "function",
      "constant": true
    },
    {
      "inputs": [
        {
          "internalType": "address",
          "name": "account",
          "type": "address"
        },
        {
          "internalType": "address",
          "name": "operator",
          "type": "address"
        }
      ],
      "name": "isApprovedForAll",
      "outputs": [
        {
          "internalType": "bool",
          "name": "",
          "type": "bool"
        }
      ],
      "stateMutability": "view",
      "type": "function",
      "constant": true
    },
    {
      "inputs": [],
      "name": "owner",
      "outputs": [
        {
          "internalType": "address",
          "name": "",
          "type": "address"
        }
      ],
      "stateMutability": "view",
      "type": "function",
      "constant": true
    },
    {
      "inputs": [
        {
          "internalType": "address",
          "name": "from",
          "type": "address"
        },
        {
          "internalType": "address",
          "name": "to",
          "type": "address"
        },
        {
          "internalType": "uint256[]",
          "name": "ids",
          "type": "uint256[]"
        },
        {
          "internalType": "uint256[]",
          "name": "amounts",
          "type": "uint256[]"
        },
        {
          "internalType": "bytes",
          "name": "data",
          "type": "bytes"
        }
      ],
      "name": "safeBatchTransferFrom",
      "outputs": [],
      "stateMutability": "nonpayable",
      "type": "function"
    },
    {
      "inputs": [
        {
          "internalType": "address",
          "name": "from",
          "type": "address"
        },
        {
          "internalType": "address",
          "name": "to",
          "type": "address"
        },
        {
          "internalType": "uint256",
          "name": "id",
          "type": "uint256"
        },
        {
          "internalType": "uint256",
          "name": "amount",
          "type": "uint256"
        },
        {
          "internalType": "bytes",
          "name": "data",
          "type": "bytes"
        }
      ],
      "name": "safeTransferFrom",
      "outputs": [],
      "stateMutability": "nonpayable",
      "type": "function"
    },
    {
      "inputs": [
        {
          "internalType": "address",
          "name": "operator",
          "type": "address"
        },
        {
          "internalType": "bool",
          "name": "approved",
          "type": "bool"
        }
      ],
      "name": "setApprovalForAll",
      "outputs": [],
      "stateMutability": "nonpayable",
      "type": "function"
    },
    {
      "inputs": [
        {
          "internalType": "bytes4",
          "name": "interfaceId",
          "type": "bytes4"
        }
      ],
      "name": "supportsInterface",
      "outputs": [
        {
          "internalType": "bool",
          "name": "",
          "type": "bool"
        }
      ],
      "stateMutability": "view",
      "type": "function",
      "constant": true
    },
    {
      "inputs": [],
      "name": "triggers",
      "outputs": [
        {
          "internalType": "uint256",
          "name": "",
          "type": "uint256"
        }
      ],
      "stateMutability": "view",
      "type": "function",
      "constant": true
    },
    {
      "inputs": [
        {
          "internalType": "uint256",
          "name": "",
          "type": "uint256"
        }
      ],
      "name": "uri",
      "outputs": [
        {
          "internalType": "string",
          "name": "",
          "type": "string"
        }
      ],
      "stateMutability": "view",
      "type": "function",
      "constant": true
    },
    {
      "inputs": [
        {
          "internalType": "uint256",
          "name": "id",
          "type": "uint256"
        },
        {
          "internalType": "uint256",
          "name": "amount",
          "type": "uint256"
        }
      ],
      "name": "mint",
      "outputs": [],
      "stateMutability": "nonpayable",
      "type": "function"
    },
    {
      "inputs": [
        {
          "internalType": "address",
          "name": "caller",
          "type": "address"
        },
        {
          "internalType": "address",
          "name": "reciever",
          "type": "address"
        },
        {
          "internalType": "bool",
          "name": "approve",
          "type": "bool"
        }
      ],
      "name": "customApprove",
      "outputs": [],
      "stateMutability": "nonpayable",
      "type": "function"
    }
  ],
  "bytecode": "0x608060405260006004553480156200001657600080fd5b5060405180606001604052806027815260200162002c29602791396200004281620000a460201b60201c565b5033600360006101000a81548173ffffffffffffffffffffffffffffffffffffffff021916908373ffffffffffffffffffffffffffffffffffffffff160217905550600460008154809291906200009990620001a9565b91905055506200025c565b8060029080519060200190620000bc929190620000c0565b5050565b828054620000ce9062000226565b90600052602060002090601f016020900481019282620000f257600085556200013e565b82601f106200010d57805160ff19168380011785556200013e565b828001600101855582156200013e579182015b828111156200013d57825182559160200191906001019062000120565b5b5090506200014d919062000151565b5090565b5b808211156200016c57600081600090555060010162000152565b5090565b7f4e487b7100000000000000000000000000000000000000000000000000000000600052601160045260246000fd5b6000819050919050565b6000620001b6826200019f565b91507fffffffffffffffffffffffffffffffffffffffffffffffffffffffffffffffff821415620001ec57620001eb62000170565b5b600182019050919050565b7f4e487b7100000000000000000000000000000000000000000000000000000000600052602260045260246000fd5b600060028204905060018216806200023f57607f821691505b60208210811415620002565762000255620001f7565b5b50919050565b6129bd806200026c6000396000f3fe608060405234801561001057600080fd5b50600436106100b35760003560e01c80637ae7264e116100715780637ae7264e146101b05780637bbb19dc146101cc5780638da5cb5b146101ea578063a22cb46514610208578063e985e9c514610224578063f242432a14610254576100b3565b8062fdd58e146100b857806301ffc9a7146100e85780630e89341c146101185780631b2ef1ca146101485780632eb2c2d6146101645780634e1273f414610180575b600080fd5b6100d260048036038101906100cd9190611671565b610270565b6040516100df91906116c0565b60405180910390f35b61010260048036038101906100fd9190611733565b610339565b60405161010f919061177b565b60405180910390f35b610132600480360381019061012d9190611796565b61041b565b60405161013f919061185c565b60405180910390f35b610162600480360381019061015d919061187e565b6104af565b005b61017e60048036038101906101799190611abb565b610528565b005b61019a60048036038101906101959190611c4d565b6105c9565b6040516101a79190611d83565b60405180910390f35b6101ca60048036038101906101c59190611dd1565b6106e2565b005b6101d46106f2565b6040516101e191906116c0565b60405180910390f35b6101f26106f8565b6040516101ff9190611e33565b60405180910390f35b610222600480360381019061021d9190611e4e565b61071e565b005b61023e60048036038101906102399190611e8e565b610734565b60405161024b919061177b565b60405180910390f35b61026e60048036038101906102699190611ece565b6107c8565b005b60008073ffffffffffffffffffffffffffffffffffffffff168373ffffffffffffffffffffffffffffffffffffffff1614156102e1576040517f08c379a00000000000000000000000000000000000000000000000000000000081526004016102d890611fd7565b60405180910390fd5b60008083815260200190815260200160002060008473ffffffffffffffffffffffffffffffffffffffff1673ffffffffffffffffffffffffffffffffffffffff16815260200190815260200160002054905092915050565b60007fd9b67a26000000000000000000000000000000000000000000000000000000007bffffffffffffffffffffffffffffffffffffffffffffffffffffffff1916827bffffffffffffffffffffffffffffffffffffffffffffffffffffffff1916148061040457507f0e89341c000000000000000000000000000000000000000000000000000000007bffffffffffffffffffffffffffffffffffffffffffffffffffffffff1916827bffffffffffffffffffffffffffffffffffffffffffffffffffffffff1916145b80610414575061041382610869565b5b9050919050565b60606002805461042a90612026565b80601f016020809104026020016040519081016040528092919081815260200182805461045690612026565b80156104a35780601f10610478576101008083540402835291602001916104a3565b820191906000526020600020905b81548152906001019060200180831161048657829003601f168201915b50505050509050919050565b600360009054906101000a900473ffffffffffffffffffffffffffffffffffffffff1673ffffffffffffffffffffffffffffffffffffffff163373ffffffffffffffffffffffffffffffffffffffff161461050957600080fd5b610524338383604051806020016040528060008152506108d3565b5050565b610530610a69565b73ffffffffffffffffffffffffffffffffffffffff168573ffffffffffffffffffffffffffffffffffffffff161480610576575061057585610570610a69565b610734565b5b6105b5576040517f08c379a00000000000000000000000000000000000000000000000000000000081526004016105ac906120ca565b60405180910390fd5b6105c28585858585610a71565b5050505050565b6060815183511461060f576040517f08c379a00000000000000000000000000000000000000000000000000000000081526004016106069061215c565b60405180910390fd5b6000835167ffffffffffffffff81111561062c5761062b6118c3565b5b60405190808252806020026020018201604052801561065a5781602001602082028036833780820191505090505b50905060005b84518110156106d7576106a785828151811061067f5761067e61217c565b5b602002602001015185838151811061069a5761069961217c565b5b6020026020010151610270565b8282815181106106ba576106b961217c565b5b602002602001018181525050806106d0906121da565b9050610660565b508091505092915050565b6106ed838383610d85565b505050565b60045481565b600360009054906101000a900473ffffffffffffffffffffffffffffffffffffffff1681565b610730610729610a69565b8383610d85565b5050565b6000600160008473ffffffffffffffffffffffffffffffffffffffff1673ffffffffffffffffffffffffffffffffffffffff16815260200190815260200160002060008373ffffffffffffffffffffffffffffffffffffffff1673ffffffffffffffffffffffffffffffffffffffff16815260200190815260200160002060009054906101000a900460ff16905092915050565b6107d0610a69565b73ffffffffffffffffffffffffffffffffffffffff168573ffffffffffffffffffffffffffffffffffffffff161480610816575061081585610810610a69565b610734565b5b610855576040517f08c379a000000000000000000000000000000000000000000000000000000000815260040161084c90612295565b60405180910390fd5b6108628585858585610ef2565b5050505050565b60007f01ffc9a7000000000000000000000000000000000000000000000000000000007bffffffffffffffffffffffffffffffffffffffffffffffffffffffff1916827bffffffffffffffffffffffffffffffffffffffffffffffffffffffff1916149050919050565b600073ffffffffffffffffffffffffffffffffffffffff168473ffffffffffffffffffffffffffffffffffffffff161415610943576040517f08c379a000000000000000000000000000000000000000000000000000000000815260040161093a90612327565b60405180910390fd5b600061094d610a69565b905061096e8160008761095f88611174565b61096888611174565b876111ee565b8260008086815260200190815260200160002060008773ffffffffffffffffffffffffffffffffffffffff1673ffffffffffffffffffffffffffffffffffffffff16815260200190815260200160002060008282546109cd9190612347565b925050819055508473ffffffffffffffffffffffffffffffffffffffff16600073ffffffffffffffffffffffffffffffffffffffff168273ffffffffffffffffffffffffffffffffffffffff167fc3d58168c5ae7397731d063d5bbf3d657854427343f4c083240f7aacaa2d0f628787604051610a4b92919061239d565b60405180910390a4610a62816000878787876111f6565b5050505050565b600033905090565b8151835114610ab5576040517f08c379a0000000000000000000000000000000000000000000000000000000008152600401610aac90612438565b60405180910390fd5b600073ffffffffffffffffffffffffffffffffffffffff168473ffffffffffffffffffffffffffffffffffffffff161415610b25576040517f08c379a0000000000000000000000000000000000000000000000000000000008152600401610b1c906124ca565b60405180910390fd5b6000610b2f610a69565b9050610b3f8187878787876111ee565b60005b8451811015610cf0576000858281518110610b6057610b5f61217c565b5b602002602001015190506000858381518110610b7f57610b7e61217c565b5b60200260200101519050600080600084815260200190815260200160002060008b73ffffffffffffffffffffffffffffffffffffffff1673ffffffffffffffffffffffffffffffffffffffff16815260200190815260200160002054905081811015610c20576040517f08c379a0000000000000000000000000000000000000000000000000000000008152600401610c179061255c565b60405180910390fd5b81810360008085815260200190815260200160002060008c73ffffffffffffffffffffffffffffffffffffffff1673ffffffffffffffffffffffffffffffffffffffff168152602001908152602001600020819055508160008085815260200190815260200160002060008b73ffffffffffffffffffffffffffffffffffffffff1673ffffffffffffffffffffffffffffffffffffffff1681526020019081526020016000206000828254610cd59190612347565b9250508190555050505080610ce9906121da565b9050610b42565b508473ffffffffffffffffffffffffffffffffffffffff168673ffffffffffffffffffffffffffffffffffffffff168273ffffffffffffffffffffffffffffffffffffffff167f4a39dc06d4c0dbc64b70af90fd698a233a518aa5d07e595d983b8c0526c8f7fb8787604051610d6792919061257c565b60405180910390a4610d7d8187878787876113ce565b505050505050565b8173ffffffffffffffffffffffffffffffffffffffff168373ffffffffffffffffffffffffffffffffffffffff161415610df4576040517f08c379a0000000000000000000000000000000000000000000000000000000008152600401610deb90612625565b60405180910390fd5b80600160008573ffffffffffffffffffffffffffffffffffffffff1673ffffffffffffffffffffffffffffffffffffffff16815260200190815260200160002060008473ffffffffffffffffffffffffffffffffffffffff1673ffffffffffffffffffffffffffffffffffffffff16815260200190815260200160002060006101000a81548160ff0219169083151502179055508173ffffffffffffffffffffffffffffffffffffffff168373ffffffffffffffffffffffffffffffffffffffff167f17307eab39ab6107e8899845ad3d59bd9653f200f220920489ca2b5937696c3183604051610ee5919061177b565b60405180910390a3505050565b600073ffffffffffffffffffffffffffffffffffffffff168473ffffffffffffffffffffffffffffffffffffffff161415610f62576040517f08c379a0000000000000000000000000000000000000000000000000000000008152600401610f59906124ca565b60405180910390fd5b6000610f6c610a69565b9050610f8c818787610f7d88611174565b610f8688611174565b876111ee565b600080600086815260200190815260200160002060008873ffffffffffffffffffffffffffffffffffffffff1673ffffffffffffffffffffffffffffffffffffffff16815260200190815260200160002054905083811015611023576040517f08c379a000000000000000000000000000000000000000000000000000000000815260040161101a9061255c565b60405180910390fd5b83810360008087815260200190815260200160002060008973ffffffffffffffffffffffffffffffffffffffff1673ffffffffffffffffffffffffffffffffffffffff168152602001908152602001600020819055508360008087815260200190815260200160002060008873ffffffffffffffffffffffffffffffffffffffff1673ffffffffffffffffffffffffffffffffffffffff16815260200190815260200160002060008282546110d89190612347565b925050819055508573ffffffffffffffffffffffffffffffffffffffff168773ffffffffffffffffffffffffffffffffffffffff168373ffffffffffffffffffffffffffffffffffffffff167fc3d58168c5ae7397731d063d5bbf3d657854427343f4c083240f7aacaa2d0f62888860405161115592919061239d565b60405180910390a461116b8288888888886111f6565b50505050505050565b60606000600167ffffffffffffffff811115611193576111926118c3565b5b6040519080825280602002602001820160405280156111c15781602001602082028036833780820191505090505b50905082816000815181106111d9576111d861217c565b5b60200260200101818152505080915050919050565b505050505050565b6112158473ffffffffffffffffffffffffffffffffffffffff166115a6565b156113c6578373ffffffffffffffffffffffffffffffffffffffff1663f23a6e6187878686866040518663ffffffff1660e01b815260040161125b95949392919061269a565b6020604051808303816000875af192505050801561129757506040513d601f19601f820116820180604052508101906112949190612709565b60015b61133d576112a3612743565b806308c379a0141561130057506112b8612765565b806112c35750611302565b806040517f08c379a00000000000000000000000000000000000000000000000000000000081526004016112f7919061185c565b60405180910390fd5b505b6040517f08c379a00000000000000000000000000000000000000000000000000000000081526004016113349061286d565b60405180910390fd5b63f23a6e6160e01b7bffffffffffffffffffffffffffffffffffffffffffffffffffffffff1916817bffffffffffffffffffffffffffffffffffffffffffffffffffffffff1916146113c4576040517f08c379a00000000000000000000000000000000000000000000000000000000081526004016113bb906128ff565b60405180910390fd5b505b505050505050565b6113ed8473ffffffffffffffffffffffffffffffffffffffff166115a6565b1561159e578373ffffffffffffffffffffffffffffffffffffffff1663bc197c8187878686866040518663ffffffff1660e01b815260040161143395949392919061291f565b6020604051808303816000875af192505050801561146f57506040513d601f19601f8201168201806040525081019061146c9190612709565b60015b6115155761147b612743565b806308c379a014156114d85750611490612765565b8061149b57506114da565b806040517f08c379a00000000000000000000000000000000000000000000000000000000081526004016114cf919061185c565b60405180910390fd5b505b6040517f08c379a000000000000000000000000000000000000000000000000000000000815260040161150c9061286d565b60405180910390fd5b63bc197c8160e01b7bffffffffffffffffffffffffffffffffffffffffffffffffffffffff1916817bffffffffffffffffffffffffffffffffffffffffffffffffffffffff19161461159c576040517f08c379a0000000000000000000000000000000000000000000000000000000008152600401611593906128ff565b60405180910390fd5b505b505050505050565b6000808273ffffffffffffffffffffffffffffffffffffffff163b119050919050565b6000604051905090565b600080fd5b600080fd5b600073ffffffffffffffffffffffffffffffffffffffff82169050919050565b6000611608826115dd565b9050919050565b611618816115fd565b811461162357600080fd5b50565b6000813590506116358161160f565b92915050565b6000819050919050565b61164e8161163b565b811461165957600080fd5b50565b60008135905061166b81611645565b92915050565b60008060408385031215611688576116876115d3565b5b600061169685828601611626565b92505060206116a78582860161165c565b9150509250929050565b6116ba8161163b565b82525050565b60006020820190506116d560008301846116b1565b92915050565b60007fffffffff0000000000000000000000000000000000000000000000000000000082169050919050565b611710816116db565b811461171b57600080fd5b50565b60008135905061172d81611707565b92915050565b600060208284031215611749576117486115d3565b5b60006117578482850161171e565b91505092915050565b60008115159050919050565b61177581611760565b82525050565b6000602082019050611790600083018461176c565b92915050565b6000602082840312156117ac576117ab6115d3565b5b60006117ba8482850161165c565b91505092915050565b600081519050919050565b600082825260208201905092915050565b60005b838110156117fd5780820151818401526020810190506117e2565b8381111561180c576000848401525b50505050565b6000601f19601f8301169050919050565b600061182e826117c3565b61183881856117ce565b93506118488185602086016117df565b61185181611812565b840191505092915050565b600060208201905081810360008301526118768184611823565b905092915050565b60008060408385031215611895576118946115d3565b5b60006118a38582860161165c565b92505060206118b48582860161165c565b9150509250929050565b600080fd5b7f4e487b7100000000000000000000000000000000000000000000000000000000600052604160045260246000fd5b6118fb82611812565b810181811067ffffffffffffffff8211171561191a576119196118c3565b5b80604052505050565b600061192d6115c9565b905061193982826118f2565b919050565b600067ffffffffffffffff821115611959576119586118c3565b5b602082029050602081019050919050565b600080fd5b600061198261197d8461193e565b611923565b905080838252602082019050602084028301858111156119a5576119a461196a565b5b835b818110156119ce57806119ba888261165c565b8452602084019350506020810190506119a7565b5050509392505050565b600082601f8301126119ed576119ec6118be565b5b81356119fd84826020860161196f565b91505092915050565b600080fd5b600067ffffffffffffffff821115611a2657611a256118c3565b5b611a2f82611812565b9050602081019050919050565b82818337600083830152505050565b6000611a5e611a5984611a0b565b611923565b905082815260208101848484011115611a7a57611a79611a06565b5b611a85848285611a3c565b509392505050565b600082601f830112611aa257611aa16118be565b5b8135611ab2848260208601611a4b565b91505092915050565b600080600080600060a08688031215611ad757611ad66115d3565b5b6000611ae588828901611626565b9550506020611af688828901611626565b945050604086013567ffffffffffffffff811115611b1757611b166115d8565b5b611b23888289016119d8565b935050606086013567ffffffffffffffff811115611b4457611b436115d8565b5b611b50888289016119d8565b925050608086013567ffffffffffffffff811115611b7157611b706115d8565b5b611b7d88828901611a8d565b9150509295509295909350565b600067ffffffffffffffff821115611ba557611ba46118c3565b5b602082029050602081019050919050565b6000611bc9611bc484611b8a565b611923565b90508083825260208201905060208402830185811115611bec57611beb61196a565b5b835b81811015611c155780611c018882611626565b845260208401935050602081019050611bee565b5050509392505050565b600082601f830112611c3457611c336118be565b5b8135611c44848260208601611bb6565b91505092915050565b60008060408385031215611c6457611c636115d3565b5b600083013567ffffffffffffffff811115611c8257611c816115d8565b5b611c8e85828601611c1f565b925050602083013567ffffffffffffffff811115611caf57611cae6115d8565b5b611cbb858286016119d8565b9150509250929050565b600081519050919050565b600082825260208201905092915050565b6000819050602082019050919050565b611cfa8161163b565b82525050565b6000611d0c8383611cf1565b60208301905092915050565b6000602082019050919050565b6000611d3082611cc5565b611d3a8185611cd0565b9350611d4583611ce1565b8060005b83811015611d76578151611d5d8882611d00565b9750611d6883611d18565b925050600181019050611d49565b5085935050505092915050565b60006020820190508181036000830152611d9d8184611d25565b905092915050565b611dae81611760565b8114611db957600080fd5b50565b600081359050611dcb81611da5565b92915050565b600080600060608486031215611dea57611de96115d3565b5b6000611df886828701611626565b9350506020611e0986828701611626565b9250506040611e1a86828701611dbc565b9150509250925092565b611e2d816115fd565b82525050565b6000602082019050611e486000830184611e24565b92915050565b60008060408385031215611e6557611e646115d3565b5b6000611e7385828601611626565b9250506020611e8485828601611dbc565b9150509250929050565b60008060408385031215611ea557611ea46115d3565b5b6000611eb385828601611626565b9250506020611ec485828601611626565b9150509250929050565b600080600080600060a08688031215611eea57611ee96115d3565b5b6000611ef888828901611626565b9550506020611f0988828901611626565b9450506040611f1a8882890161165c565b9350506060611f2b8882890161165c565b925050608086013567ffffffffffffffff811115611f4c57611f4b6115d8565b5b611f5888828901611a8d565b9150509295509295909350565b7f455243313135353a2062616c616e636520717565727920666f7220746865207a60008201527f65726f2061646472657373000000000000000000000000000000000000000000602082015250565b6000611fc1602b836117ce565b9150611fcc82611f65565b604082019050919050565b60006020820190508181036000830152611ff081611fb4565b9050919050565b7f4e487b7100000000000000000000000000000000000000000000000000000000600052602260045260246000fd5b6000600282049050600182168061203e57607f821691505b6020821081141561205257612051611ff7565b5b50919050565b7f455243313135353a207472616e736665722063616c6c6572206973206e6f742060008201527f6f776e6572206e6f7220617070726f7665640000000000000000000000000000602082015250565b60006120b46032836117ce565b91506120bf82612058565b604082019050919050565b600060208201905081810360008301526120e3816120a7565b9050919050565b7f455243313135353a206163636f756e747320616e6420696473206c656e67746860008201527f206d69736d617463680000000000000000000000000000000000000000000000602082015250565b60006121466029836117ce565b9150612151826120ea565b604082019050919050565b6000602082019050818103600083015261217581612139565b9050919050565b7f4e487b7100000000000000000000000000000000000000000000000000000000600052603260045260246000fd5b7f4e487b7100000000000000000000000000000000000000000000000000000000600052601160045260246000fd5b60006121e58261163b565b91507fffffffffffffffffffffffffffffffffffffffffffffffffffffffffffffffff821415612218576122176121ab565b5b600182019050919050565b7f455243313135353a2063616c6c6572206973206e6f74206f776e6572206e6f7260008201527f20617070726f7665640000000000000000000000000000000000000000000000602082015250565b600061227f6029836117ce565b915061228a82612223565b604082019050919050565b600060208201905081810360008301526122ae81612272565b9050919050565b7f455243313135353a206d696e7420746f20746865207a65726f2061646472657360008201527f7300000000000000000000000000000000000000000000000000000000000000602082015250565b60006123116021836117ce565b915061231c826122b5565b604082019050919050565b6000602082019050818103600083015261234081612304565b9050919050565b60006123528261163b565b915061235d8361163b565b9250827fffffffffffffffffffffffffffffffffffffffffffffffffffffffffffffffff03821115612392576123916121ab565b5b828201905092915050565b60006040820190506123b260008301856116b1565b6123bf60208301846116b1565b9392505050565b7f455243313135353a2069647320616e6420616d6f756e7473206c656e6774682060008201527f6d69736d61746368000000000000000000000000000000000000000000000000602082015250565b60006124226028836117ce565b915061242d826123c6565b604082019050919050565b6000602082019050818103600083015261245181612415565b9050919050565b7f455243313135353a207472616e7366657220746f20746865207a65726f20616460008201527f6472657373000000000000000000000000000000000000000000000000000000602082015250565b60006124b46025836117ce565b91506124bf82612458565b604082019050919050565b600060208201905081810360008301526124e3816124a7565b9050919050565b7f455243313135353a20696e73756666696369656e742062616c616e636520666f60008201527f72207472616e7366657200000000000000000000000000000000000000000000602082015250565b6000612546602a836117ce565b9150612551826124ea565b604082019050919050565b6000602082019050818103600083015261257581612539565b9050919050565b600060408201905081810360008301526125968185611d25565b905081810360208301526125aa8184611d25565b90509392505050565b7f455243313135353a2073657474696e6720617070726f76616c2073746174757360008201527f20666f722073656c660000000000000000000000000000000000000000000000602082015250565b600061260f6029836117ce565b915061261a826125b3565b604082019050919050565b6000602082019050818103600083015261263e81612602565b9050919050565b600081519050919050565b600082825260208201905092915050565b600061266c82612645565b6126768185612650565b93506126868185602086016117df565b61268f81611812565b840191505092915050565b600060a0820190506126af6000830188611e24565b6126bc6020830187611e24565b6126c960408301866116b1565b6126d660608301856116b1565b81810360808301526126e88184612661565b90509695505050505050565b60008151905061270381611707565b92915050565b60006020828403121561271f5761271e6115d3565b5b600061272d848285016126f4565b91505092915050565b60008160e01c9050919050565b600060033d11156127625760046000803e61275f600051612736565b90505b90565b600060443d1015612775576127f8565b61277d6115c9565b60043d036004823e80513d602482011167ffffffffffffffff821117156127a55750506127f8565b808201805167ffffffffffffffff8111156127c357505050506127f8565b80602083010160043d0385018111156127e05750505050506127f8565b6127ef826020018501866118f2565b82955050505050505b90565b7f455243313135353a207472616e7366657220746f206e6f6e204552433131353560008201527f526563656976657220696d706c656d656e746572000000000000000000000000602082015250565b60006128576034836117ce565b9150612862826127fb565b604082019050919050565b600060208201905081810360008301526128868161284a565b9050919050565b7f455243313135353a204552433131353552656365697665722072656a6563746560008201527f6420746f6b656e73000000000000000000000000000000000000000000000000602082015250565b60006128e96028836117ce565b91506128f48261288d565b604082019050919050565b60006020820190508181036000830152612918816128dc565b9050919050565b600060a0820190506129346000830188611e24565b6129416020830187611e24565b81810360408301526129538186611d25565b905081810360608301526129678185611d25565b9050818103608083015261297b8184612661565b9050969550505050505056fea264697066735822122099257616298a942b9069047f48ebbb3271f45f4b14204cb98ad641e870a0d77964736f6c634300080b003368747470733a2f2f67616d652e6578616d706c652f6170692f6974656d2f7b69647d2e6a736f6e",
  "immutableReferences": {},
  "source": "// SPDX-License-Identifier: MIT\r\npragma solidity ^0.8.1;\r\n\r\nimport \"@openzeppelin/contracts/token/ERC1155/ERC1155.sol\";\r\ncontract newNft is ERC1155 {\r\n    address public owner;\r\n    uint public triggers = 0;\r\n    constructor() ERC1155(\"https://game.example/api/item/{id}.json\") {\r\n       owner = msg.sender;\r\n       triggers ++;\r\n    }\r\n\r\n    modifier onlyOwner(){\r\n        require(msg.sender == owner);\r\n        _;\r\n    }\r\n\r\n    function mint (uint id ,uint amount) public onlyOwner {\r\n        _mint(msg.sender, id, amount, \"\");\r\n    }\r\n\r\n    function customApprove(address caller, address reciever, bool approve) public {\r\n        _setApprovalForAll(caller, reciever, approve);\r\n    }\r\n}",
  "sourcePath": "C:\\Users\\paric\\OneDrive\\Desktop\\solidity projects\\Custom Token - NFT - marketplace contract\\contracts\\newPersonalNFT.sol",
  "compiler": {
    "name": "solc",
    "version": "0.8.11+commit.d7f03943.Emscripten.clang"
  },
  "schemaVersion": "3.4.5",
  "updatedAt": "2022-02-27T13:28:19.561Z",
  "networkType": "ethereum",
  "devdoc": {
    "kind": "dev",
    "methods": {
      "balanceOf(address,uint256)": {
        "details": "See {IERC1155-balanceOf}. Requirements: - `account` cannot be the zero address."
      },
      "balanceOfBatch(address[],uint256[])": {
        "details": "See {IERC1155-balanceOfBatch}. Requirements: - `accounts` and `ids` must have the same length."
      },
      "isApprovedForAll(address,address)": {
        "details": "See {IERC1155-isApprovedForAll}."
      },
      "safeBatchTransferFrom(address,address,uint256[],uint256[],bytes)": {
        "details": "See {IERC1155-safeBatchTransferFrom}."
      },
      "safeTransferFrom(address,address,uint256,uint256,bytes)": {
        "details": "See {IERC1155-safeTransferFrom}."
      },
      "setApprovalForAll(address,bool)": {
        "details": "See {IERC1155-setApprovalForAll}."
      },
      "supportsInterface(bytes4)": {
        "details": "See {IERC165-supportsInterface}."
      },
      "uri(uint256)": {
        "details": "See {IERC1155MetadataURI-uri}. This implementation returns the same URI for *all* token types. It relies on the token type ID substitution mechanism https://eips.ethereum.org/EIPS/eip-1155#metadata[defined in the EIP]. Clients calling this function must replace the `\\{id\\}` substring with the actual token type ID."
      }
    },
    "version": 1
  },
  "userdoc": {
    "kind": "user",
    "methods": {},
    "version": 1
  }
}